:100000006F20203F00000000881E00008C1E0000B2
:1000100000000000000000000000000000000000E0
:1000200000000000000000000000000000000000D0
:10003000C023000000000000C223000000000000F8
:10004000C4230000C6230000C8230000CA23000008
:1000500018040000CE230000D0230000D2230000AB
:10006000D4230000D6230000D8230000DA230000A8
:10007000DC230000DE230000E0230000E223000078
:10008000E4230000E6230000E8230000EA23000048
:10009000EC2300003E210000F023000000000000DF
:1000A000511126C022C206C4828282441244A24058
:1000B000310182802A86014593F6150091C232955E
:1000C00085810606F5F9828000000000634E050276
:1000D00063C305042E86AA857D5515C285466378BF
:1000E000B6006356C00006068606E36CB6FE014500
:1000F00063E4C500918D558D85820582F5FA828075
:100100008682C93F2E8582823305A04063D70500D1
:10011000B305B040C1B7B305B0408682653F330533
:10012000A0408282868263C70500634905005D376F
:100130002E858282B305B040E35B05FE3305A04007
:10014000513F3305B040828200003D432A876373EC
:10015000C3029377F700BDEFADE5937606FF3D8AC6
:10016000BA960CC34CC30CC74CC74107E36BD7FE10
:1001700011E28280B306C3408A0697020000969679
:100180006780A6002307B700A306B7002306B700C1
:10019000A305B7002305B700A304B7002304B700E5
:1001A000A303B7002303B700A302B7002302B700DD
:1001B000A301B7002301B700A300B7002300B700D5
:1001C000828093F5F50F93968500D58D9396050162
:1001D000D58D61B793962700970200009696868288
:1001E000E78086FA9680C1171D8F3E96E374C3F8A8
:1001F000A5B7011126CC9384018183A7818222CEE9
:100200003EC29C20938611833EC08D67938787E210
:100210003EC48D679387C7F08822138641823EC60D
:100220001C22138301831375F50F03470300014458
:100230008143BD4293854181630EF5060505137523
:10024000F50FAA8763F4A20081470145AE979C236E
:1002500088A293F7F70FB9CF1305000F6386A7069F
:100260001305000E6388A7061375170041E9494579
:100270006384A71613059005638BA71645459373F2
:100280002700638FA708130580056389A70E63897C
:100290000304938767FB93F7F70F13053003637A23
:1002A000F50E1377C70F854388221C221375F50FAF
:1002B000E316F5F8638403002300E3007DE00145C5
:1002C0007244E24405618280136717001377F70FC9
:1002D0008543D9BF136727001377F70F8543E9B725
:1002E0001385B7FE1375F50F930380033EC863EBC8
:1002F000A30CA2430A051E95084102854945638364
:10030000A70E130590056386A7064545E39BA7F84E
:1003100093772700D9D71377F70E1377C70F61B7F5
:10032000E38003FC136707011377F70F1377C70FF9
:100330009DBF05452ACA130570089373C70F636AEA
:10034000F5089377070189C7924783C70711A9EF7B
:10035000318B82475DC3D5EF42479247BA970385F9
:1003600087081E8729D12300E30039D882479CA043
:1003700081BF1377770F1377C70F35B71375470012
:100380000DCD02450544134515002AC063890302BB
:10039000B94732451377C70FAA970385070001D5E0
:1003A000D9B782479CA021BF42479247BA9703859D
:1003B00017111E87E30905EE7DB7E39B03FC1305C8
:1003C00080052AC802CA130570089373C70FE37A21
:1003D000F5F61E878543C9BD136747001377F70FEE
:1003E0008543D9B51377B70F1377C70F6DBD136763
:1003F00087001377F70F854345BD99C3D247A9FFFF
:1004000042479247BA97038507001E87E30D05E828
:1004100099BFD247F5F789B77111094522C0EF207E
:10042000001C09E50244110173002030894537158D
:100430000140EF20A03B21ED914537150140EF2011
:10044000E03AB7F700E02A848847994561319387FD
:10045000C18298439306A00F3307E54063E0E604AA
:1004600093863181982288C39D451306F7FF930731
:1004700017001376F60F93F7F70F63EBC502138798
:1004800051820C233314C4009CA24D8C00A3094557
:10049000EF20C016024411017300203088C3A382EC
:1004A000018205470945A389E180EF202015DDB7CA
:1004B0009CA22D47E39DE7FC138641821C2283C545
:1004C0001183850793F7F70F13B707013307E04050
:1004D000F98F138751826388B70008239385418180
:1004E000BE9588A11CA2238006002300070045B703
:1004F000EFF21FBB138411811C2003C72181054526
:10050000D98F99E7FD311375F50F08A03335A00099
:1005100069BEEFF2FFB813842181082001C52300D2
:10052000040061B69387118188230DC123800700E1
:1005300093178501E187E3D607FE93F7F70393E767
:1005400007F819811CA01365050C85B65D31AA87D3
:100550001375F50FE3C307FE69F57D55D9B7EFF2C3
:100560003FB48D671301C1FD938707F48545454569
:1005700023A4F18202C402C602C802CA02CC02CE7F
:1005800002D002C002C2EF20A038930480040D44C0
:100590002C008947371501407C8426C822C6EF20ED
:1005A000601791472C00371501407C8426C822C66D
:1005B000EF20401685450945EF20E0238947054493
:1005C00048083ECAB1473ECE22D002CCEF10507A46
:1005D0000A85930740117C8022C223010100EF208D
:1005E000002423820182A38801821301410275BC89
:1005F000EFF21FAB71119387C18E01443EC0B54429
:10060000093F93178501E187638097042547638637
:10061000E70A21476386E7001307F0076396E706BA
:1006200065D02145EF10F01D13050002EF10701D7D
:100630002145EF10101DF13D931785017D14E187D1
:100640001374F40FE39497FCEF10B0248247A29741
:100650002380070005C81306000291450245930751
:10066000F4FF93F7F70F3307F500830607001387AE
:1006700076FF1377F70F638BC60463F9E5042A94BA
:1006800023000400110115B41375F50F130705FEBF
:100690001377F70F9306E005E3E4E6F61307E004AB
:1006A000E36087F68246130714001377F70F36943A
:1006B0001CA03A84EF10F014A1B71307E00413054F
:1006C000000293070002E36D87F2E9BF3E8479B729
:1006D000EFF21F9D41112EC002C6AA846359050086
:1006E000B307A040939407018547C1843EC6938712
:1006F000C18E3EC423830700194719A02287AA840C
:10070000A94526851304F7FF3AC2293CA247137472
:10071000F40F13060503B3868700268590A2A9452A
:1007200075324205A54741851247E3C997FCB24798
:1007300091CBA2471304E7FF1374F40FA29713079A
:10074000D00298A399470247818F3EC263D0E70247
:1007500013050002EF10F00A824712479384F7FF57
:1007600093970401C1873EC0E344F7FEA2473E943D
:100770000305040009C91375F50F0504EF1070088F
:10078000030504006DF941010DB2EFF27F910144C0
:100790009384C18EBD3B93178501E18735476386FE
:1007A000E7042147638EE70A1307F007638AE70A25
:1007B00079C41547E36087FE1375F50F130705FD30
:1007C0001377F70FA546E3E7E6FC1307140013774A
:1007D000F70F26941CA03A84EF10B0021D3B93172C
:1007E0008501E1873547E39EE7FA2694EF10700A0A
:1007F00023000400838604009307B002638CF6088C
:100800009307D0026395F608838614008542054756
:100810001383C187834503000146014521A813774F
:10082000F70FB386E40063D4A700054689458386A5
:1008300006003E8593172500AA97938306FD860739
:100840009E97C2070507C187F9FA19C22300B300B2
:10085000638602003305A040420541856FF0FF84A6
:1008600021DC2145EF10E07913050002EF106079DB
:100870007D1421451374F40FEF10A07821BF137578
:10088000F50F130755FD1377D70F21D305BF81420D
:100890000147BDBF838614008142054795BF4111C2
:1008A0009387C18926C422C68384C18E02C09385E2
:1008B000C18E3EC2E5426380041013070002938795
:1008C00074FF93F7F70F6389E40A914663F6F60A1B
:1008D000B70700201384C7058143032304000305E1
:1008E000030059CDA6862E8693F7F60F1387F7F9E6
:1008F0001377F70F811763E5E20093968701E1868E
:10090000639AA60005030305030005063DC9830697
:100910000600D9BF850393F3F30F93074002110438
:10092000E39DF3FA830703002E86C1C793F6F40F05
:10093000938706FD93F7F70F25476370F70E93072C
:100940002002638FF41093077002638BF41013F787
:10095000F6FD1307F7FB9387F6F91377F70FE545D5
:1009600093F7F70F63FCE50432445147238EE18689
:10097000A24401454101828085058384050081B739
:100980002E8602479307E00463E8E71E92458247FC
:10099000A146830406003387F5002300770085070E
:1009A00093F7F70F2E876381D31E3EC083070300A2
:1009B000B5FFB28599F01387C189B1A482451307A9
:1009C000D004636BB71A82450D47637AB7001247AC
:1009D00013055002BA9503C7E5FF6305A718024740
:1009E000924513055002BA9588A10507E54513778E
:1009F000F70F63F6F5009387F6FB93F7F70F824640
:100A000092458304160089062E9793F6F60F36C09A
:100A10001CA393051600E54279BD8146938704FD2A
:100A2000A54511A883040600BE86938704FD13F52F
:100A3000F70F63E6A50E13972600369706073E9735
:100A40004207418393170701C1870506E3DCD7FC02
:100A500032440947238EE186A24401454101828048
:100A60000305160093051600638FA41A930705FE6D
:100A700093F7F70F1307E0056367F71A2E87814690
:100A80009303E00521A063E0F302968605070303C4
:100A90000700138616009372F60F930703FE93F771
:100AA000F70FE31293FE02449307F004B387574015
:100AB0006354F40C92439307140093F7F70F3387B2
:100AC000830013036002230067009E97130724002E
:100AD000238057009377F70F638E02189303340037
:100AE000B382760093F2F20F2E8319A00305030060
:100AF00012471384170005033E9708A39377F40F5A
:100B0000E39657FEB693AE960385160093F7F30F60
:100B1000B2953EC0638DA404AA84E54269BB024439
:100B20009307C00463EA870492429305140093F587
:100B3000F50F33858200130340029695230065006C
:100B40009307240098A193F7F70F93053400338798
:100B5000F20093D7864093F6F50F36C01CA3B285FA
:100B6000E54291BB83C5C5FFE39BE5E6F5BB838406
:100B70001500E542850581B332441147238EE18695
:100B8000A2440145410182801305000291459386EC
:100B900074FF93F6F60F05066384A40863F2D50884
:100BA000C5CC3285814511A0B68505050303F5FF47
:100BB0009386150093F6F60FE31803FE1305E00481
:100BC000158DE3DBA7FA124502443E9514A1930765
:100BD000240093F7F70FDDC2930634003383D5006A
:100BE0001373F30F21A083040600050612459382B8
:100BF00017003E9504A193F7F20FE39667FEAE96B9
:100C000093F7F60F3EC08247138517003E97930770
:100C100070021CA33244A2441375F50F4101828077
:100C200083040600ADB702479307E004E3C6E7F488
:100C30000246124493066002930716003307C4006D
:100C400014A393F7F70F13072600A2971377F70F54
:100C50003AC0238007007DBD9306D004E3EEF6F092
:100C6000824612468906B29793F6F60F36C0238065
:100C7000070051BFAA843EC0E54235B93EC061B706
:100C80001383C19303470300611122C226C09385D9
:100C9000C1899021630607123A859387C193AA9769
:100CA000882375FDB307F3409387F71FC207C187F9
:100CB00063C8C70A63030610A8219C3122055D8D15
:100CC0004205418529A03A93034703004DC383475A
:100CD000230083421300A207B3E75700C207C1876E
:100CE000E3C3A7FE6389A70891476307F606034796
:100CF00003006DC79A87BA97982375FF33856740BD
:100D000093130501C162420593D30301FD1233879A
:100D1000C700418563815302420541811345F5FFB8
:100D20003A95814219A083C207007D17A30057009E
:100D3000FD17E31AA7FE9307F6FFC207C18309CE8A
:100D40008507BE959386C18911A09022050385066B
:100D5000A30FC3FEE39BB6FE1244824421018280AE
:100D600012441547238EE186824421018280A167C7
:100D7000FD17E39BA7F63304E300834204009A8740
:100D8000638A02021387F2FF42074183930417002C
:100D9000B3839700228519A0834205008507A38F9E
:100DA00057FE0505E39AF3FE229783421700269427
:100DB000E39A02FC2380070005BF21657D1501BF72
:100DC0001383C1939387C19375D6A8219C312205C3
:100DD0005D8D4205A1674185FD1729B73307C30023
:100DE0009A87014515BFEFF2AFAB1C2151112A8440
:100DF00013077002638CE70A13073002637BF70A5C
:100E000013074002638BE714130750026385E71052
:100E1000130760026399E7181C30638A070E3307D3
:100E2000F4001433130720026381E602FD1793F7E1
:100E3000F70F8507A2979306140013062002638814
:100E4000D70CFD179833E31CC7FE930770023EC012
:100E5000024593042400EF10C01A1C3026C21387E9
:100E6000F7FF1377F70F3AC4638B07129307370026
:100E70003E94850403C5F4FFEF10A018E39B84FEA5
:100E8000A2471384170092473E940245EF10601763
:100E90001C2013075002E39DE7F413050002EF1036
:100EA00040161C2013077002E398E7F431016FF03D
:100EB000CF9FB7060020139727009386C605369765
:100EC00004430385040071CD1375F50F8504EF10FD
:100ED0004013038504006DF90C200D66930706246A
:100EE000C9071306062411A0B68798239386F7FF37
:100EF0006309B700E39AC7FE13050002EF10601004
:100F00000C2021471C306386E50A0504D5B59307FC
:100F100020023EC035BF0830930424001305150499
:100F20001375F50FEF10E00D8D67138747253020FF
:100F300039079385472511A036871C239306F7FFB1
:100F4000630BF600E31AB7FE13050002EF10600B07
:100F50003C20268471BD268461BD28201C3081453B
:100F600022055D8D42054185EFF08FF68D67138771
:100F7000472593043400303039079385472511A065
:100F800036871C239306F7FFE307F6FCE31AB7FE48
:100F900013050002EF10E0063C30268491BD124498
:100FA000EDB5BE851DBF5547238EE18631016FF03B
:100FB000CF8F1387F7FF1377F70F0D0793042400E4
:100FC0003A94E38507EE850403C5F4FFEF10600350
:100FD000E31B94FE31016FF04F8DEFF26F8C552CB7
:100FE00083C7C187ADEFAA84138441871840154693
:100FF0001C23AD1793F7F70F6368F6028D668A0717
:101000001386C60DB2979C43050718C082875124EA
:101010001840B324950015461C2393C41400AD1743
:1010200093F7F70FE37CF6FC26856FF00F88952485
:10103000898C93B414005DBFA92CB32495007DB7AF
:10104000892C898CB334900055B7A124B3A4A40093
:1010500093C4140061BF352CB3A4A40041BFFD5458
:10106000E1B7EFF2EF83138441871C404D4794238F
:101070006389E6009387C187454798A301456FF0D0
:10108000CF8285071CC0913F9387C187982311EBBE
:101090001840D1461023E311D6FE050718C06FF0A3
:1010A000CF8001456FF06F80EFE29FFF0D667111F9
:1010B000814505449386418759451306460F98425A
:1010C0001C23C51793F7F70F636FF50E8A07B297C6
:1010D0009C438287930727009CC21C3313971700F9
:1010E0009387C1B7BA97839507002285EFE09FFCED
:1010F0004205418511016FE05FFB33048040050725
:10110000420498C2418465BF050798C24DBF913F14
:10111000AA852285EFE01FFA4205418511016FE0A3
:10112000DFF8050798C2353F9387C1879823AA85C2
:101130004DFF7D476354A70A0D4798A37DB7050768
:1011400098C2053783C7C187AA85C5F32AC0EF10A7
:10115000F03C8245EFE01FFD93150501C18571B795
:10116000050798C2FD3D83C7C187AA85BDFFE35E21
:1011700005F6B305A040C205C18585BF93071700DA
:101180009CC21033CD476303F6064547238EE186A4
:101190002285EFE03FF24205418511016FE0FFF04B
:1011A000930717009CC22C231C330D07A205DD8D6D
:1011B000C205C18598C22285EFE0DFEF4205418577
:1011C00011016FE09FEE5147238EE1862285EFE00B
:1011D0007FEE4205418511016FE03FED931515004B
:1011E00093874183BE958395050001B73023D1478E
:1011F000E31DF6F89385C19390210D0798C201CEA7
:101200009387C193B297902375FE9D8D9385F51FAB
:10121000C205C185D9BD9305F01FC1BDEFE25FE8EE
:10122000611159359387C1873EC29C23ADE32A865D
:1012300013844187C5441C40C9459823630997001E
:1012400085076303B702328521016FE01FE685073A
:1012500032C01CC0913D0246AA853285EFE09FE571
:10126000131605014186C1BF32C01CC0353D024680
:10127000AA87AA85328599C7EFE05FE513160501B5
:10128000418655BF124785477D561CA36DBF7D56CD
:101290005DBFEFE2FFE0593783C7C187A1E32A842E
:1012A000938441873D469C40C1469823850763004F
:1012B000C7026316D7029CC095379C402A9442040B
:1012C00098233D464184C1468507E314C7FE9CC070
:1012D000B137098C420441843D46F1B77D542285E3
:1012E0006FE0BFDCEFE2DFDB138441871440711154
:1012F00002C09C2239476380E70613077002638CA3
:10130000E7045947638AE70613076002639FE7060D
:101310001387260018C094329387F6FF93F4F70FD3
:1013200085C29306170014C00823EF00904D9387E1
:10133000F4FF93F4F70F9307F00F1840E393F4FED4
:101340001C23B546638ED70039476386E700130731
:1013500070026395E704EF00D05311016FE0FFD4F2
:101360009306170014C01C333947E388E7FE1307C0
:101370007002E391E7F8D5B7850614C0B93983C781
:10138000C1872AC0F9FB184065BF813983C7C1876F
:10139000E9F78245EFF0CFB318405DB75147238E90
:1013A000E18611016FE07FD0EFE29FCF1384418788
:1013B0001C401387C18741113AC0982393066002ED
:1013C000630BD706ED46630CD70093065002630704
:1013D000D70C0247D1471CA341016FE01FCD054741
:1013E00085071CC03AC2B5398247AA849C23EDF711
:1013F000FD47124763C6A71269E3EFF00FB98247B2
:101400009C23F9FB1387418393971400BA978AA30F
:101410001C409823B946E301D7FC93067002E30D04
:10142000D7FAB546E317D7FA85071CC09823930669
:101430006002E319D7F81387270018C09433938705
:10144000F6FF93F4F70F85C29306170014C0082324
:10145000EF00303B9387F4FF93F4F70F9307F00FFF
:101460001840E393F4FE1C23ED46638FD70A9306DE
:101470005002E390D7F6050718C0EFF00FB182478E
:101480009C23B9FB1840930717001CC01823931620
:1014900017001387C1B736970AA3A5BF1387170094
:1014A00018C08833130515041375F50FEF00703558
:1014B0001305A003EF00F034C9B7B73700001307D6
:1014C0008002130500049387472629A0A2473A8586
:1014D0000387170085071375F50F3AC23EC43EC651
:1014E000EF00303212477DF326858145EFF04F9EA5
:1014F000B73700001307A0031305900293878726D0
:1015000029A0A2473A850387170085071375F50FB1
:101510003AC23EC43EC6EF00D02E12477DF3F1BD65
:1015200002478D471CA34DBDBA87014755BD938720
:1015300041879843E1461306170090C310336306B2
:10154000D6004947238EE1868280EFE27FB593067D
:101550002700002394C3EFF05FA883C7C18791E7FA
:1015600006049387C1B7A2978AA36FE01FB4EFE286
:101570003FB3EFF01FAF1384C1871C2091EFFD47ED
:10158000AA8463CDA700938741879843E14610233F
:10159000630AD600C9471CA06FE03FB18D471CA06D
:1015A0006FE0BFB0050798C3EFF03FA31C20EDF735
:1015B000860493874183BE948AA0F9BFEFE25FAEB1
:1015C0009387418798436D461423638BC6001306A7
:1015D0005002639CC600050798C3913F6FE0FFACC3
:1015E000050798C369376FE05FAC3947238EE18602
:1015F0006FE0BFABEFE2DFAA9384418798405111BF
:101600000D641823930770026309F702EFE05FEEA1
:1016100009ED9440130750029C22636CF7208A075F
:1016200013070415BA979C438287EFE09FEEED47BE
:10163000E311F5FE5947238EE18603A581871C211E
:1016400031013E956FE07FA6850694C0CD3583C7F6
:10165000C187D9EB9C40982375B74D47238EE1860F
:10166000014531016FE07FA4850694C0093783C727
:10167000C187C5B7850694C083C7C187D9BF850612
:1016800094C02D3F83C7C187E9B7850694C09939B7
:1016900083C7C1877DBF850694C0393383C7C1879F
:1016A0004DBF1387818708431C21C5DF3E9508C3C2
:1016B0001C21EDFF31016FE05F9F83C7C187850665
:1016C0001306700294C0850603C7F6FFE31CC7FE2D
:1016D00049B7850694C0EFF05F901387C1871C233C
:1016E00063830716BD471CA3014531016FE0FF9BD3
:1016F000938781B790231387160098C01147637FA3
:10170000C7121387260098C01307F6FF8832938507
:10171000C1B30A072E9713035002184363046516DA
:101720002947238EE1860145C9B7938726009CC0CF
:101730009832930750026306F7123147238EE186F1
:10174000014565B7938681899822854763F6E7103E
:101750009307F7FF93F7F70F79171377F70F1386B0
:1017600001888A07B297931527009C432E96104252
:101770009CC023ACC18698A283C7C187D9BD85060A
:1017800094C0EFF09F851387C1871C23B1FF938519
:10179000C19394216389061EBC218C311386C193A9
:1017A000A207CD8FC207C18763CBA70031A83C2217
:1017B0000C32A207CD8FC207C18763D7A700369628
:1017C0001422F5F6A167FD17630EF510C1471CA39F
:1017D000014521BF850694C0EFF03F801387C18784
:1017E0001C23E39307F09385C19394216380061A29
:1017F000BC218C311386C193A207CD8FC207C1874C
:1018000063CBA70031A83C220C32A207CD8FC207C0
:10181000C18763D7A70036961422F5F6A167FD1796
:10182000E316F5FA9307360023ACC1869CC0383224
:10183000D1BB5147238EE186014545BD2547238E07
:10184000E18601455DB594409822E31D05DA130653
:101850007002E316C7E6D5B31D47238EE186014526
:1018600069B5BC223EC0E1311387C1871C23E39DCB
:1018700007E69C40914690236301D60EB5471CA312
:101880000145A5B51385360088C0B42242074187BB
:101890006387E6002D47238EE1860145B9B513071E
:1018A000E6FF1385C1B70A078606AA962E9703237B
:1018B00007009A221305D6FF0A051A9742074187A7
:1018C00042032E959AA213530341831605006344E5
:1018D00003066304030663D2E6066D1690A383C76E
:1018E000C18785BB938781899423914563F6D50091
:1018F00099471CA30145D5BB13838187832303002C
:10190000138516009385018883A20400139726008F
:101910001375F50F2E970A0523207700AA951387D4
:1019200026009306360098A323A055002320C30069
:1019300094C03832C1B9E342D7FA1307C6FF930700
:10194000B6FF0A078A072E97AE971443984394C0B0
:1019500023ACE18683C7C187EDB985073AC49CC033
:10196000EFF0AFE79C402AC29546902322476306DA
:10197000D60AA167F9170545924663D2D70289476F
:101980001CA301459DB31386C1932DBD1386C1933E
:1019900071B5E17792468507898FE3C2F6FE93879A
:1019A00081B794233EC4A94763F6D700A1471CA37F
:1019B000014525BB83A781879393260013831600D7
:1019C000BE829387C1B3BE9323A053001373F30F5A
:1019D00083A204000A033E9393852600232053002C
:1019E0001386360093F5F50F1243938346008A055C
:1019F0001376F60FBE950A0693F3F30F23A0650046
:101A0000B385C70013962300B2972246950688C176
:101A100014A2824694C31C232DB985073AC49CC0E6
:101A2000EFF0AFDB2247E34605F635D9A167FD1796
:101A3000898F99B7EFE2CFE69387C19398231384F8
:101A40008187238C0188238C01B61CC071111DC3B2
:101A50009387C1871385C193938441873EC021A09A
:101A600008C01C2181CB0D0588C0EFF0BFB88247AC
:101A70009C23FDD711016FE04FE3EFE26FE283A7F4
:101A8000418713074002814594236398E600AC2305
:101A90009C33A205DD8DC205C1851387C193102338
:101AA0001384818718C015CA28231433220533678D
:101AB000D500420741876355B7029387C19311A8A8
:101AC000A823943322053367D50042074187635822
:101AD000B700B29790236DF61CC06FE00FDD1CC0FD
:101AE0009384C18719A875231C409823BA971CC0FA
:101AF000982365D7A82394332205558D4205814547
:101B00004185EFE0FFBC13050002E52908400D0503
:101B1000EFF06FAD9C20E1DB6FE02FD9EFE24FD803
:101B2000411137440008EF00F02E130404E0B744DD
:101B30000008228513040404EF00B036E31B94FE72
:101B40009387C1933EC6938707043EC0930704E082
:101B500002C23EC4EF00902EA24732473384E740D2
:101B60008247938407FC92471D8CB830B020943094
:101B70008C20420662073297A206369733059400FE
:101B8000BA95EF00702E82479104E39097FEA2472A
:101B9000138407043E8522C4EF0050349247938794
:101BA00007043EC28247938707043EC0B747000838
:101BB000E312F4FAEF00F02741016FE00FCFEFE2FC
:101BC0002FCE1387C1891C2393864187851798C21E
:101BD00093F7F70F11466366F60C0D668A07130636
:101BE000861EB2979C4382871033050798C29307DD
:101BF0007002630CF60A5147238EE1866FE0EFCA4C
:101C00001033050798C293077002E316F6FEB74635
:101C100000081386C193938606E09387C193130649
:101C200006209D8E3387F60018238507A38FE7FED5
:101C3000E39AC7FEE1B71033930717009CC29307DE
:101C400070026305F6005823E317F7FA3D357DB7B8
:101C5000050798C2C5336FE04FC51033050798C21A
:101C600093077002E319F6F89387C1B71387470308
:101C7000239007008907E39DE7FE9387418313873D
:101C80000704239007008907E31DF7FE238C0188D2
:101C90009387C193238C01B62380070023ACF18680
:101CA000B1BFEFF03F956FE04FC08D3D81BFEFE2D8
:101CB0002FBF9387C18761113EC09C23A5CB03A78B
:101CC00041879387C193636FF70893870720637BEE
:101CD000F708938781873EC29C439C23C1C7552E3A
:101CE000B7370000930490041305C0041384C7227F
:101CF00021A02685830414001375F50F0504112611
:101D0000EDF892479C43982349CFA8239C332205A2
:101D10005D8D420541858145EFE09F9B13050002E3
:101D2000CD24924788430D05EFF0EF8B9D26824727
:101D30009C2313972700B707002093870700BA97C3
:101D400084430385040001C91375F50F8504552CE0
:101D50000385040075F9352E824723800700210191
:101D60006FE0AFB43D26B73400001304F004130550
:101D700090059384442321A02285038414001375C5
:101D8000F50F8504BD2C6DF80385C18E45D1938474
:101D9000C18E1375F50F8504AD240385040075F914
:101DA00071B721657D1585BFEFE28FAF9387C1B70E
:101DB00013874703239007008907E39DE7FE938776
:101DC000418313870704239007008907E31DF7FE6B
:101DD000238C01889387C193238C01B6373400008C
:101DE0002380070023ACF1869304F004130540051B
:101DF0001304C41F21A02685830414001375F50F56
:101E000005040124EDF871243734000093048004A4
:101E1000130530041304442121A0268583041400F3
:101E20001375F50F0504F12AEDF83734000093041B
:101E30005004130500021304042221A02685830404
:101E400014001375F50F05046D2AEDF89924138419
:101E5000C187B13D9384C18921A0EFF05FD6813D58
:101E60001305E003792AEFE0AFF8EFE05FA31C2051
:101E7000FDF79C2013074002E391E7FE88A0EFE006
:101E80003FE01C20F1DFE1BF7300203001A0EFE252
:101E90002FA109651301C1FB85451305058102D0FA
:101EA00002D202D402D602C402C62318010002CA1A
:101EB00002CC02CE02D802DA02DC02DE23100104D8
:101EC00002C002C2EF00D024E1478D444C084147D4
:101ED00037150140F8823ECE26CCEF00B003E14733
:101EE0004C0813070004371501403ECEF88226CC7B
:101EF000EF0050023734014005672C00130504C081
:101F00001307A7BE3AC602C4C164EF00F028938449
:101F100004070C10130504C01307100E26D023135A
:101F2000E10223140102EF0010391307E0150C1031
:101F3000130504C02313E10226D023140102EF008D
:101F4000D02C130504C08545EF007040130504C074
:101F50008145EF007044130504C08145EF00B04493
:101F6000130504C08545EF007041130504C0854585
:101F7000EF00503C37C704013AD8E1473707020069
:101F80000C183ADA3EDE370700029D47373501402C
:101F90003ADC2310F104EF009019054689453735E6
:101FA0000140EF00301E854537350140EF00D01B62
:101FB000930750220A857C8085473EC22301010099
:101FC000EF00F0050546A145130504C0EF00D03928
:101FD0001305000CEF00104223AEA1BA4545EF00F7
:101FE0007041AA84138441BB454504C0EF00904072
:101FF00048C02388040023080500130141046FE052
:10200000CF8A938701BB21478C236305E506EFE266
:102010002F89138411BB10209384C1BB98401206F2
:10202000BD4632972E9708A3982305071377F70F1D
:1020300063E5E60098A36FE04F8718202380070030
:10204000AD469307170093F7F70F1CA0E3F5F6FED4
:1020500088401306000B93050501EF00903A884075
:10206000414681451305050BEFE02F8EAD4614A0C8
:102070006FE0AF8391E9138711BB142391CAFD165A
:1020800014A33D4798A382801387F5FF98A382800D
:102090008280EFE2EF80138411BB1C20238801BAF9
:1020A000850793F7F70F1CA0AD4463E4F4006FD0ED
:1020B000DFFF9387C1BB88431306000B930505011F
:1020C000EF0030349387C1BB8843414681451305F7
:1020D000050BEFE08F8704A06FD03FFDEFD25FFCD0
:1020E0001301C1FC2A842EC205458545B68432C041
:1020F00002C402C602C802CA02CC02CE02D002D278
:1021000002D402D602D8EF00C07E22858D269247E7
:1021100002462C003EC4C1473EC8930700083ECE8D
:1021200022858D6732C626CA3ED602CC02D002D2A4
:1021300002D402D8CD26130141036FD01FF76111DD
:1021400026C0B734014022C2A145138504C0EF0068
:102150003027138421BB1E200D478507C207C1838A
:102160001EA01E20630AF7001E2011476306F70019
:102170001E201547631BF70485653735014093859D
:1021800095B0130505C0EF0070231E2013077002E1
:102190006377F7001E201307700E6379F70A1E207D
:1021A000130760026377F7001E201307600E637544
:1021B000F7021E20130760106374F7002310040059
:1021C000124482442101730020309305100E1385C0
:1021D00004C0EF00B01E55BF12201E20130596FD4F
:1021E000938797FD93D6F74113D7C6011356F54150
:1021F000B386E7003D8A2A96BD8A998E118693F6AA
:10220000F60F1376F60F0D6512068582014793854A
:1022100041BB1383C1BB1305C54DC14283230300DA
:102220001E20B293BA9383C303008507858B8A0768
:102230008E03AE97AA939C43B69383C30300BA97C9
:10224000050723807700E31B57FCA5B71E20938565
:1022500041BB858B8A07BE959041B7040240B735D4
:10226000014013850403B905C546EFF03FE78545F6
:1022700013850403DD2425B7EFD29FE2B7F700E012
:1022800023A40700984309451367170098C36923DF
:10229000EFF0FFBF03A5C1BB1306000C8145EFD0D3
:1022A000DFEAEFE0CFABEFF03FB0F5BFB71702408A
:1022B0009843B706FFFC61111367170098C3D84312
:1022C000370601402163758FD8C39843B706F7FEE0
:1022D000FD16758F98C39843B706FCFFFD16758FE2
:1022E00098C3D843C176FD16758FD8C337079F00B2
:1022F00098C702C002C2984FB716024037050200C5
:102300001367170098CF584289653367670058C232
:1023100098434166518F98C321A08247638AB700D2
:102320009C42E98F3EC2824785073EC09247F5D75F
:10233000B71702409C431397E700635A070085478D
:102340003EC2124785476309F7002101828002C21D
:1023500012478547E31BF7FE372702401443B717A0
:1023600002404176F19A14C314437D1693E6160099
:1023700014C3D44337170240D4C3D443F18ED4C31B
:10238000D4434166D18ED4C3944337060001D18E25
:1023900094C31C4393966700E3DD06FE5C43371647
:1023A0000240A146F19B5CC35C4393E727005CC3FA
:1023B0005C42B18BE39ED7FE2101828001A001A087
:1023C00001A001A001A001A001A001A001A001A005
:1023D00001A001A001A001A001A001A001A001A0F5
:1023E00001A001A001A001A001A001A001A001A0E5
:1023F00001A097E1FF1F9381E155138101EB1725A0
:1024000000001305A58E97E5FF1F9385A5BF1386D2
:10241000818063FAC5008322050023A055001105C1
:102420009105E3EAC5FE13858180938581BC6377BE
:10243000B500232005001105E36DB5FE93020008E9
:10244000739002308D427390428097E2FFFF938237
:1024500062BB93E2320073905230EFF03FE5970297
:1024600000009382A2E173901234730020301C416B
:1024700041677917F98F1CC123200500232205002D
:1024800023240500B7070240232605001387870091
:102490006300E5041387C7016307E5021387070399
:1024A0006303E504138747046306E5041387870580
:1024B0006305E5021387C7066303E504138707086E
:1024C0006305E5048280D8431367070FD8C3828071
:1024D000D8431367F700D8C38280D843B7060F00EC
:1024E000558FD8C38280D8438566938606F0558F72
:1024F000D8C38280D843BD66558FD8C38280D84365
:10250000B706F000558FD8C38280D843B706000FB6
:10251000558FD8C3828094519C459049D84903A3D4
:102520008501D58FD18FD44D83A24502D98F905587
:102530001841B3E76700D58FE176BD06B3E75700D2
:1025400003A3C500758FD18F9441D98F1CC1DC4185
:102550002322650014C55CC582801C4189C593E7B0
:1025600017001CC1828041677917F98F1CC18280D6
:1025700058410C410323C500B7060140938706402C
:102580003E9713C6F5FF6301030483A306400323AC
:102590008500C142B3F3C30023A07640D443758EB7
:1025A000D0C31443D58D0CC31441904713C7F6FF15
:1025B000798E90C7D047718FD8C7630B53009A9715
:1025C0009843D98E94C382801C437D8E10C3828031
:1025D0009847558F98C7D847D98ED4C78280B707F8
:1025E00001401387074083A70740584B698F09C7ED
:1025F0007D8D3335A000828001458280B707014080
:1026000023AAA7408280372702401C4B93E7070884
:102610001CCB8280B7066745B727024093863612E7
:102620003797EFCDD4C31307B79AD8C3D4D3D8D331
:102630008280EFD2FFA6C13F6FD03FA7B7270240ED
:10264000984BC16637060800558F98CB944B3727B7
:102650000240D18E94CB5C47858BF5FF1C4BC17635
:10266000FD16F58F1CCB8280B70700F8AA9711677B
:1026700063F8E702B7270240984BC16637060400AB
:10268000558F98CB0CC1944B37270240D18E94CBF9
:102690005C47858BF5FF1C4BC176FD16F58F1CCB77
:1026A0008280B70700F8AA97116763F8E702B72797
:1026B0000240944B3706020037270240D18E94CB5C
:1026C000C8CB944B93E6060494CB5C47858BF5FF0F
:1026D0001C4B8176FD16F58F1CCB8280B70700F866
:1026E000AA97116763F7E702B7270240944B416648
:1026F00037270240D18E94CBC8CB944B93E6060487
:1027000094CB5C47858BF5FF1C4BC176FD16F58F8E
:102710001CCB828003A38500611122C226C093775F
:1027200003019373F30081C7DC41B3E3F30092210B
:102730009377F60FA1CB144181478544214421A012
:102740008507638087043397F400B375E600E319C7
:10275000B7FE93922700BD45B395550093C5F5FF8D
:10276000ED8EB392530093058002B3E6D200630B63
:10277000B30693058004E315B3FC18C98507E394F9
:1027800087FC14C19307F00F63FAC7045441A147B3
:102790008544414421A08507638187043397F40071
:1027A000B375E600E319B7FE939527008115BD4286
:1027B000B392B20093C2F2FFB395B300B3F6D20066
:1027C000CD8E930580026301B30293058004E31468
:1027D000B3FC18C98507E39387FC54C112448244B3
:1027E0002101828058C9A9BF58C975B708456D8DA8
:1027F0003335A000828037070140144786058D4796
:10280000B397B70093C7F7FFF58F1CC71C47B315E5
:10281000B500DD8D0CC7828023A0A1BC8280938788
:1028200001BC9843142129E33C2137E700E09207DB
:10283000369793F7F70F2300F7405041054793D79A
:1028400056003317D70009CA938707048A07B7E6EB
:1028500000E0B69798C38280938707068A07B7E699
:1028600000E0B69798C38280984305466308C70284
:102870008C4309476381E50498430D466308C7000C
:1028800098439147E31BF7FA1C3145B710313C21BF
:102890006368C7040606B297920731A03C21103145
:1028A00092076305E60237E700E093F7F70F3697E4
:1028B0002300F74059B718313C216378E60213072B
:1028C000E7030A07BA9793F7F70F920793E707F81A
:1028D00037E700E093F7F70F36972300F740B1BFD3
:1028E0001306C6070606B297F9BF0A07BA979207FA
:1028F0005DBF99C5371702405C4B5D8D48CB828028
:10290000B7170240D84B1345F5FF798DC8CB8280AD
:1029100099C5371702401C4F5D8D08CF8280B717CD
:102920000240984F1345F5FF798D88CF8280BA21F8
:102930009E21D221F62103D38500D98FD18FBA25CC
:1029400083D2C500D58F1221F625B3E76700D98F52
:102950000D67B3E7570013070704D58F718F9629CA
:10296000D98F1EA116A982801E2189C593E707046D
:102970001EA18280C207C18393F7F7FBC207C18300
:102980001EA182805E2101C6DD8D4EA1828093C58D
:10299000F5FFFD8D4EA182801E21373701401307C0
:1029A00007C0C207C18303D36500D2219621630EFD
:1029B000E50237070040630CE50093F7F7CFB367F4
:1029C000F3001EA152B516B585475EA98280BA21D3
:1029D00093F7F7F85D8F1377F7CFB367E3001EA186
:1029E00052B516B585475EA98280BA2193F7F7F8EC
:1029F000D98F93F7F7CFB367F3001EA152B516B581
:102A00009C251EB985475EA982801A31922583D202
:102A10002500420741831377F7EF420741831AB13C
:102A20001E3156215A2DC207C18333E6C200220649
:102A300003D30500420793F7F7DFD18F4183373681
:102A400001401377C7F8C206C207130606C0C18249
:102A500033676700C1836308C500F22156A15AADF0
:102A600050DD1EB1828083D2A5007D7603D3C500E0
:102A700083D3E5001306F67FF18F13968200D18F82
:102A800075767D1633E3630083D24500F18E120321
:102A9000C207B3E66600C183C206F22193F7F7BF0F
:102AA000A202C18256A1B3E757005AADC207C18343
:102AB00050DD1EB182801A31FD77FD17F98F1EB1EE
:102AC000B6219E258352050203D30500522183536C
:102AD000C501DD8E6577F9771307F7CFFD17B206CD
:102AE000337777002203B3F75700D58F336767003A
:102AF000B736014042064207C207938606C04182AC
:102B00004183C1836308D500F62152A15AAD34C177
:102B10001EB1828003D3C500F176FD16758E931623
:102B20006300558E4206F621418252A15AAD34C14E
:102B30001EB182801E2189C593E717001EA18280E5
:102B4000C207C183F99BC207C1831EA1828083573C
:102B5000450491C52167D98F2312F5048280C607E9
:102B6000C5832312F50482805E2501C6DD8D4EA546
:102B7000828093C5F5FFFD8D4EA582801E2189C5FB
:102B800093E707081EA18280C207C18393F7F7F776
:102B9000C207C1831EA182805E2DC207C183DD9B57
:102BA000DD8D4EAD82805A2DFD779387F77FF98FAB
:102BB000A205CD8FC207C1835EAD82802CC1828009
:102BC00093C5F5FFC205C1810EA98280B707002019
:102BD0009387C70E9443138781BC36956369E500DC
:102BE000138701DB6365A70088C336858280FD56A5
:102BF0003685828097D7FF1F9387C755AA8588435C
:102C0000A1A063F1A504B386C500637DD5029345F9
:102C1000F6FF8147FD176393F50082803387F60046
:102C2000034307003387C7002A9723006700DDB7F7
:102C30003387F50014233307F500850714A3E31940
:102C4000F6FE82808147E5BF411126C2938435009C
:102C5000F19806C622C4A104B14763F5F404B14457
:102C600063E4B4042AC0912A138781801443824705
:102C7000368439E01387C180184301EB3E858145D6
:102C80003EC0392223A6A18082473E85A6853EC04C
:102C900001227D5782476314E506314798C33E857C
:102CA000312A29A0E3DE04FAB1471CC10145B24034
:102CB00022449244410182801840058F634E0702EE
:102CC0002D466376E60018C03A9404C031A05840FF
:102CD0006392860223A4E1803E85CD201305B400D3
:102CE000130744006199B307E540F1D33E94098F7F
:102CF00018C075BFD8C2CDB7A28640409DBF13048F
:102D000035007198E30385FCB305A4403E853EC0C1
:102D100041207D578247E31AE5FA41B7511197D711
:102D2000FF1F9387274322C2804306C41C5C95EB98
:102D30006145EFF03FECB737CDAB08DC9387E73068
:102D40001CC1B7176DE6938747235CC1B7E7050041
:102D50009387C7EE1CC5AD475EA50547814718C9D7
:102D60005CC9005C971700009387C7F79043084839
:102D70004C48D443A9209307150033B5A7002E95DE
:102D800048C81CC8A2401244060505813101828052
:102D9000511122C22A842E8523A201BC06C4EFF061
:102DA000FFE2FD576317F500938741BC9C4391C335
:102DB0001CC0A24012443101828082808280211195
:102DC0002AC236C006CAAA8622C826C6328732C49C
:102DD000814701450143338666009373170033042E
:102DE000F50093D2F6010583B33466008607638548
:102DF00003003385840032838606B3E7570061FF02
:102E0000AA8789C52245EFD0EFAAAA97024711C722
:102E10001245BA85EFD00FAAAA97D2404244B244D5
:102E20001A85BE856101828032030000C403000060
:102E3000C4030000C4030000C40300003203000008
:102E4000320300003203000032030000C40300001C
:102E5000C4030000C403000032030000320300007A
:102E60003203000032030000C4030000C40300006A
:102E7000C4030000C4030000C403000032030000C8
:102E8000320300003203000032030000C4030000DC
:102E9000C4030000C403000032030000320300003A
:102EA000320300003203000032030000C4030000BC
:102EB000C4030000C4030000C40300003203000088
:102EC0003203000032030000C4030000C40300000A
:102ED000C4030000C4030000C40300003203000068
:102EE0003203000032030000C4030000C4030000EA
:102EF000C4030000C4030000C4030000C4030000B6
:102F000032030000C4030000320300002F00000061
:102F10000000000000000000000000000D000000A4
:102F20000000000000000000000000000008000099
:102F30000000007F0A00150B000000001A000019B5
:102F40000000000000000000000000000009000078
:102F5000000000000071310000007A7361773200D8
:102F6000006378646534330000207666747235003F
:102F7000006E62686779360000006D6A7537380048
:102F8000002C6B696F303900002E2F6C3B702D00C8
:102F9000005C3A00405E000000000D5B005D000038
:102FA0000000000000007F0000315C3437494A0017
:102FB000302E323536381B00002B332D2A390000D5
:102FC0000000000000000000000000000000000001
:102FD0000000000000090000000000000051210076
:102FE00000005A534157220000435844452423000F
:102FF0000020564654522500004E424847592600AC
:1030000000004D4A55272800003C4B494F0029003D
:10301000003E3F4C2B503D00005F2A00607E0000C8
:1030200000000D7B007D00000000000000007F001C
:1030300000317C3437000000302E323536381B002A
:10304000002B332D2A390000000000000000000092
:103050000000000000000000000000000000000070
:103060000000000000000000000000000000000060
:103070000000000000000000000000000000000050
:103080000000000000000000000000000000000040
:103090000000000000000000000000000000000030
:1030A0000000000000000000000000000000000020
:1030B0000000000000000000000000000000000010
:1030C0000000000000000000000000000000000000
:1030D0000000000000000000000000004A10000096
:1030E00040100000381000002E1000000E100000EC
:1030F00056100000FA10000008110000C611000070
:10310000C61100000E110000C6110000C61100001B
:10311000C6110000C6110000C6110000C611000053
:10312000C6110000221100003E11000060110000D5
:103130007C110000C6110000C6110000C61100007D
:10314000C6110000C6110000A0110000D41000003C
:10315000D41700007E170000441700002A17000053
:103160003218000032180000F0160000D2160000DD
:10317000BA160000A2160000961600008A1600007B
:103180007E1600003218000074160000321800008D
:103190003218000032180000321800003218000007
:1031A00032180000321800003218000032180000F7
:1031B00032180000321800003218000068160000B3
:1031C0003218000032180000321800005A160000B1
:1031D0005A1600005A1600005A1600005A1600002F
:1031E0003218000048160000361C0000501C000079
:1031F0005A1C0000E81B0000001C0000544F594FEF
:103200005348494B492054494E5920424153494360
:1032100000000000434833325630303300000000D5
:103220002045444954494F4E000000004C494E454A
:103230003A000000594F5520545950453A2000009B
:1032400002090D0F101112131415161718191A1B55
:103250001C1D1E000F101112131415161718191A21
:103260000D0E270040280000293A00004F4B0000B7
:103270004465766973696F6E206279207A65726F32
:10328000000000004F766572666C6F7700000000EA
:10329000537562736372697074206F7574206F6602
:1032A0002072616E6765000049636F646520627516
:1032B000666665722066756C6C0000004C697374FC
:1032C0002066756C6C000000474F53554220746FA8
:1032D0006F206D616E79206E657374656400000007
:1032E00052455455524E20737461636B20756E6461
:1032F0006572666C6F770000464F5220746F6F20C6
:103300006D616E79206E6573746564004E45585426
:1033100020776974686F757420464F520000000072
:103320004E45585420776974686F757420636F75C3
:103330006E746572000000004E455854206D69732C
:103340006D6174636820464F52000000464F522062
:10335000776974686F7574207661726961626C65F3
:1033600000000000464F5220776974686F75742022
:10337000544F00004C455420776974686F75742071
:103380007661726961626C650000000049462077D1
:103390006974686F757420636F6E646974696F6EA9
:1033A00000000000556E646566696E6564206C6996
:1033B0006E65206E756D62657200000027282720FB
:1033C0006F72202729272065787065637465640013
:1033D000273D2720657870656374656400000000F0
:1033E000496C6C6567616C20636F6D6D616E640024
:1033F00053796E746178206572726F7200000000FC
:10340000496E7465726E616C206572726F72000035
:1034100041626F7274206279205B4553435D000006
:10342000474F544F00000000474F535542000000E3
:1034300052455455524E0000464F52005354455089
:10344000000000004E4558540000000049460000AE
:1034500052454D0053544F5000000000494E505506
:10346000540000005052494E540000004C45540096
:103470002C0000003B0000002D0000002B0000008D
:103480002A0000002F000000280000002900000092
:103490003E3D0000230000003E0000003D00000013
:1034A0003C3D00003C00000040000000524E440043
:1034B0004142530053495A45000000004C495354BF
:1034C0000000000052554E004E45570053415645EE
:1034D000000000004C4F41440000000000000000CC
:1034E000000000007E427E427E4282001092541014
:1034F000284482001214F814345292001010FE1066
:103500003854920010287C923854FE001010107C21
:103510001010FE007E42427E42427E00407E483CC9
:10352000287E0800FE9292FE8282860004EEA4EFBE
:10353000A2EA06002844823C14244C0028C85CEA15
:103540006CC850007C207C447C447C000C7010FED5
:10355000101010007E101E1222440800007C282843
:10356000284E0000101010FF00000000000000FFB7
:1035700010101010101010F0101010101010101F5C
:1035800010101010101010FF10101010101010104C
:1035900010101010000000FF000000000000001FCD
:1035A00010101010000000F0101010101010101F5C
:1035B00000000000101010F00000000081422418EC
:1035C00018244281107C1010284482001010FE92B2
:1035D000FE10100010105454921030000000000033
:1035E000000000002020202000002000505050004B
:1035F000000000005050F850F85050002078A070A3
:1036000028F02000C0C810204098180040A040A812
:103610009098600010204000000000001020404002
:1036200040201000402010101020400020A87020E2
:1036300070A82000002020F82020000000000000DA
:103640000020204000000078000000000000000082
:10365000006060000000081020408000708898A87A
:10366000C88870002060A0202020F8007088081012
:103670006080F80070880830088870001030509022
:10368000F8101000F880E0100810E000304080F0E2
:1036900088887000F88810202020200070888870AA
:1036A000888870007088887808106000000020000A
:1036B000002000000000200000202040183060C0E2
:1036C000603018000000F800F8000000C0603018FA
:1036D0003060C000708808102000200070880868E2
:1036E000A8A8700020508888F8888800F0484870A2
:1036F0004848F0003048808080483000E05048481A
:103700004850E000F88080F08080F800F88080F079
:1037100080808000708880B888887000888888F8E9
:103720008888880070202020202070003810101019
:10373000909060008890A0C0A090880080808080D9
:103740008080F80088D8A8A88888880088C8C8A879
:10375000989888007088888888887000F08888F039
:103760008080800070888888A8906800F08888F041
:10377000A09088007088807008887000F820202051
:103780002020200088888888888870008888888819
:1037900050502000888888A8A8D8880088885020A1
:1037A000508888008888887020202000F808102021
:1037B0004080F800704040404040700088502070C9
:1037C0002070200070101010101070002050880021
:1037D00000000000000000000000F8004020100081
:1037E0000000000000007008788878008080B0C871
:1037F00088C8B00000007088808870000808689849
:103800008898680000007088F8807000102820F800
:103810002020200000006898986808708080F08858
:103820008888880020006020202070001000301060
:1038300010109060404048506050480060202020A8
:10384000202070000000D0A8A8A8A8000000B0C8E0
:103850008888880000007088888870000000B0C8E0
:10386000C8B0808000006898986808080000B0C858
:103870008080800000007880F008F0004040F04038
:1038800040483000000090909090680000008888C8
:1038900088502000000088A8A8A850000000885088
:1038A0002050880000008888986808700000F81090
:1038B0002040F80018202040202018002020200060
:1038C00020202000C02020102020C00040A8100090
:1038D00000000000000000000000000010387CFE26
:1038E000FE387C006CFEFEFE7C3810003838FEFE90
:1038F000D6107C0010387CFE7C3810000078848460
:10390000848478000078FCFCFCFC780020F04C708B
:10391000A8403C000020782078B46400000088842F
:10392000848440000070007088083000007000F04F
:10393000206098000020F82478A468000090586463
:10394000A82010000010B8D49418200000101C10FB
:103950007098740000000078040438000000000033
:1039600000000000207C207CAA92640000848282F7
:103970008280400038003844040830007000F8109D
:1039800020609C0024FA207CA2A244004044F24A19
:103990004888300020FC10FC088078000810204087
:1039A0002010080004849E84848448007804000069
:1039B00000807C0010FE08040480780080808080F5
:1039C0008488700008FE3848380810004444FE44DB
:1039D00048403C004428FE2040403C0000000000DD
:1039E00000000000000000006090600038202020EF
:1039F00000000000000000202020E0000000000087
:103A0000804020000000003030000000F808F80876
:103A1000102040000000F010604080000010206086
:103A2000A02020000020F090102040000000F02096
:103A30002020F0000020F060A0A020000040F84806
:103A400050404000000070101010F8000000F0100E
:103A5000F010F0000000A8A8081020000000807CF2
:103A600000000000F80828302020400008102060E6
:103A7000A020200020F888880810200000F82020CE
:103A80002020F80010F810305090100020F828285E
:103A90002848880020F820F820202000784888084E
:103AA00008102000407850901010200000F80808FE
:103AB0000808F80050F850501010200000C008C846
:103AC0000810E00000F808102050880040F8485026
:103AD000404038008888480810204000784878889E
:103AE0000810200010E020F820204000A8A8A80816
:103AF000081020007000F820202040004040605056
:103B00004840400020F820202020400000700000A5
:103B10000000F80000F808D02050880020F8083095
:103B2000E8202000080808102040800020104848A5
:103B3000484888008080F88080807800F80808086D
:103B4000102040000040A0100808000020F82020AD
:103B5000A8A8200000F8080850201000F00060001D
:103B600000F00800102040809088F80008080850F5
:103B7000205080007820F8202020180040F8484885
:103B800050404000007010101010F80000F808F8C5
:103B90000808F8007000F808081020004848484855
:103BA000481020001050505050589000404040485D
:103BB0004850600000F888888888F800F8888808ED
:103BC0000810200000C000080810E0009048000025
:103BD00000000000609060000000000020F8204E0F
:103BE00040908E0010FE20780404780000FC020251
:103BF00002041800FE08102020201C002024386039
:103C000080807C002CF244449C261C00009E808016
:103C100080904E0048487CD2B6AA4C00404CD262FC
:103C20004ED24E0000385492A2A24400049E8484D6
:103C30008C964C0010E426444448300020100020AC
:103C40001452B20000002050880402001E849E849A
:103C50008C964C0010FC10FC709874007010147E50
:103C6000A4A4480020F42260A2621C0048487CAA58
:103C700092A2440020F820F820241800485C6AE250
:103C800024101000109CB2D2921C2000101C1010A6
:103C900078947000601080B8C484380008848484EC
:103CA0004408300078103844B44C3800202CF424F8
:103CB00064A4260078102078840438004040DC6238
:103CC00042C244001010202060528C00000000000E
:103CD00000000000000000000000000000000000E4
:083CE0002D7F954C2DF4515885
:103CE8006C32000070320000843200009032000014
:103CF800A8320000BC320000C8320000E0320000E8
:103D0800F83200000C330000203300003833000084
:103D18004C33000064330000743300008C3300001F
:103D2800A4330000BC330000D0330000E0330000AF
:103D3800F03300000034000010340000203400008C
:103D4800283400003034000038340000703300009C
:103D58003C340000443400004C340000503400006F
:103D6800543400005C340000643400006C340000FB
:103D78007034000074340000783400007C34000093
:103D88008034000084340000883400008C34000043
:103D98009034000094340000983400009C340000F3
:103DA800A0340000A4340000A8340000AC340000A3
:103DB800B0340000B4340000BC340000C434000047
:103DC800C8340000CC340000D434000018050020AA
:103DD80000000000000000000000000000000000DB
:103DE80000000000000000000000000000000000CB
:103DF80000000000000000000000000000000000BB
:103E080000000000000000000000000000000000AA
:103E1800000000000000000000000000000000009A
:103E2800000000000000000000000000000000008A
:083E3800F00000200000000072
:00000001FF
