:100000006F105065000000002A1900002E19000032
:1000100000000000000000000000000000000000E0
:1000200000000000000000000000000000000000D0
:10003000221E000000000000241E0000000000003E
:10004000261E0000281E00002A1E00002C1E000094
:10005000DE030000301E0000321E0000341E0000CF
:10006000361E0000381E00003A1E00003C1E000034
:100070003E1E0000401E0000421E0000441E000004
:10008000461E0000481E00004A1E00004C1E0000D4
:100090004E1E0000B41B0000521E000000000000B5
:1000A000511126C022C206C4828282441244A24058
:1000B000310182802A86014593F6150091C232955E
:1000C00085810606F5F9828000000000634E050276
:1000D00063C305042E86AA857D5515C285466378BF
:1000E000B6006356C00006068606E36CB6FE014500
:1000F00063E4C500918D558D85820582F5FA828075
:100100008682C93F2E8582823305A04063D70500D1
:10011000B305B040C1B7B305B0408682653F330533
:10012000A0408282868263C70500634905005D376F
:100130002E858282B305B040E35B05FE3305A04007
:10014000513F3305B040828200003D432A876373EC
:10015000C3029377F700BDEFADE5937606FF3D8AC6
:10016000BA960CC34CC30CC74CC74107E36BD7FE10
:1001700011E28280B306C3408A0697020000969679
:100180006780A6002307B700A306B7002306B700C1
:10019000A305B7002305B700A304B7002304B700E5
:1001A000A303B7002303B700A302B7002302B700DD
:1001B000A301B7002301B700A300B7002300B700D5
:1001C000828093F5F50F93968500D58D9396050162
:1001D000D58D61B793962700970200009696868288
:1001E000E78086FA9680C1171D8F3E96E374C3F8A8
:1001F000A5B783A381824111938741813EC089675E
:100200009387077C22C603C6018103C7018326C4E6
:100210008142014593850181138301833EC2938707
:1002200011839423938741829C2393F6F60F938442
:100230001183639DF60019C12300E300638302006C
:1002400090A101453244A24441018280850693F683
:10025000F60FBD4763F3D70081468247B6979C23CC
:1002600094A093F7F70FE1DB9306000F6396D70096
:1002700013671700054565B79306000E6395D70011
:1002800013672700C5BF937617008DCAC9466397C9
:10029000D7001377B70F1377C70FE9BF9306900501
:1002A0006395D7001377770FFDB7C546E395D7FE63
:1002B00093772700EDD31377F70EF1BFC946639507
:1002C000D700136747007DB7930690056395D70065
:1002D0001367870045B74545937627006392A702C9
:1002E000EDC613670701938767FB93F7F70F930634
:1002F0003003E3E2F6FA9246B6970385070049A079
:10030000130580056398A7001375470001C51346C0
:1003100016008542E9FA9306500363E0F6081305D8
:100320001003854663F5A7029306400263E4F606D0
:1003300013051002854663FCA70055456389A70095
:10034000814663E6A700938667FE93B646001305D1
:100350007008E362F5F4137507019E9701C503C5A4
:1003600003113DE91375C7003DC1054519C213C509
:1003700016009376F50F0545E391A6F803858708E7
:100380001377C70FE30805EE2300E300E38C02EACE
:1003900090A14DBD938667FD4DBF9306400463EC6D
:1003A000F600130520048546E3F3A7FA938667FC5D
:1003B00093B6360069BF1305B0048546E389A7F8F4
:1003C000938637FB93B6160059B7814649B711E2B9
:1003D000814693F6F60F45B70385171155B771118E
:1003E000094522C0EF10504311C989453715014016
:1003F000EF10506201C90945EF10F04302441101AA
:1004000073002030914537150140EF10B060B7F709
:1004100000E02A8488479945753983A6C18213066E
:10042000A00FB306D5409387C182138731816376CD
:10043000D60023000700A382018288C31C239D46A7
:100440001385F7FF1375F50F63E9A60093865182B4
:1004500090223315A400518D88A2850793F7F70FDA
:100460001CA3AD46E399D7F8938741829C233D4670
:1004700093854182850793F7F70F6373F6008147F1
:1004800083C61183138651826388D700082293861E
:100490004181BE9688A29CA123000700230006008C
:1004A00099BFEFF2FFBF138411811C2003C7218184
:1004B0000545D98F99E7353B1375F50F08A03335FE
:1004C000A000E5B6938621819C2289C7238006007F
:1004D0003E858280EFF2DFBC138421811387118176
:1004E0001C2395C32300070013978701618763507E
:1004F00007021377F703136707F8998318A093E7A8
:10050000070C3E8539A0F5319377F50FF1BF7D5586
:10051000EDFB61BEEFF2DFB889671301C1FD938780
:10052000477F8545454523A4F18202C402C602C81F
:1005300002CA02CC02CE02D002C002C2EF10F05CAE
:100540008947930480040D442C00371501407C84B6
:1005500026C822C6EF10B03E91472C003715014047
:100560007C8426C822C6EF10903D85450945EF10D2
:10057000104B894705443ECA4808B1473ECE22D0B9
:1005800002CCEF10D022930740110A857C8022C252
:1005900023010100EF10304B23820182A3880182E6
:1005A0001301410219B67D161376F60F9307F00F6B
:1005B0006314F600014582803387C50018237D1639
:1005C0001376F60FE316A7FE054582809377F50FA5
:1005D0001387F7F91377F70FE54663E6E60081170F
:1005E0001395870161858280930700026308F500F7
:1005F0005D151375F50F1335550082800545828012
:100600001375F5FD1305F5FB1375F50F1335A501EE
:100610008280EFF2FFA82A840305040011E171B47F
:100620001375F50F0504EF10604AFDB7EFF25FA7F1
:1006300071110144413D93178501E1873547639D61
:10064000E702EF10604F9387C18EA29723800700C7
:100650009384C18E05C09307F4FF93F7F70F338798
:10066000F400030507003EC0413782472DED269474
:1006700023000400110115BC25476388E7022147C8
:100680006386E7001307F0076393E7020DC0214577
:10069000EF10C04313050002EF1040437D142145C5
:1006A0001374F40FEF10804271B79307000213F533
:1006B000F70F130705FE1377F70F9306E005E3EB3B
:1006C000E6F61307E004E36787F613071400938642
:1006D000C18E1377F70F36943AC01CA0EF10003F7D
:1006E00002473A8481BF3E84BDB7EFF27F9B411140
:1006F0002A842E870146635705003304A040420434
:10070000418405469386C18E238306009387C18E5C
:1007100099469384F6FF93F4F40FB3829700A945AA
:1007200022853AC632C436C216C0ED3A824213055B
:100730000503A9452380A2002285493A42052543A5
:1007400041859387C18E924622463247634F83008C
:1007500011CA9384E6FF93F4F40FB386970013064F
:10076000D00290A21944058C39A8A6862A8455B7D0
:10077000130500023AC0EF10603502479387C18E1F
:100780007D1742074187E345E4FE338597005135E5
:10079000410121BAEFF2DF90711101442533931723
:1007A0008501E1873547639FE704EF10E0389387C1
:1007B000C18E3E9423000400838707001307B00214
:1007C0001386C18E6387E70A1307D0026386E70AA0
:1007D0008145014703C3C187814201459386C18793
:1007E000B307E60083830700639A0308638402006B
:1007F0002380660089C53305A0404205418511016B
:100800006FF0BF8A21476386E7001307F007639103
:10081000E7020DC42145EF10602B13050002EF1015
:10082000E02A7D1421451374F40FEF10202ABDB780
:100830000DEC130755FD1377D70F01CB130705FDFB
:100840001377F70FA546E3EBE6F41307140093863E
:10085000C18E1377F70F36941375F50F3AC01CA0AD
:10086000EF10C02602473A8415BF1547E36887F2A8
:10087000F1B781450547B9BF8545EDBF9317250001
:10088000AA978607938707FD9E97C2070507C1872A
:100890001377F70F63D4A700854209433E8589B7D4
:1008A000EFF21F80B707002011119387C7059384CB
:1008B000C18E01441387C1893EC0330387008387FB
:1008C000040099EB13051400930770023A94137512
:1008D000F50F1CA079AC8504038504001AC22933E6
:1008E00012431387C18965F9014682469317260092
:1008F0009372F60FB6978C43A6878383050032CC9C
:100900001ECA63800326038507002EC816C61AC4B4
:100910003EC26D39D24392472243B242C245138749
:10092000C1896246638AA300050693074002E31E5D
:10093000F6FAA687228665A0850585077DBF130682
:10094000140023005300A1461376F60F6393D208D8
:100950000385070032C23EC0413982471246938662
:1009600017001387C18939E98145938615003383C0
:10097000D7000303F3FF13F5F50F6313030493F597
:10098000F50F9306E004B385B6406350B61E930698
:100990002400930534003A9693F6F60FAA9508A220
:1009A00093F5F50F3686328305061376F60F639BB3
:1009B000C5003384A6001374F40F29B7B68749BF66
:1009C000B68565B783C207003A93850723005300B5
:1009D000D9BF838505000503BE846382051883841F
:1009E0000700A545938604FD93F6F60F63EBD50645
:1009F0008145254385078386F7FF139525002E95AE
:100A00000605938606FDAA96C206C18213950601C5
:100A100041856354B500094791AAAA858823130527
:100A200005FD1375F50FE377A3FC1305C004636E92
:100A3000C5123305C70013034002230065001305E8
:100A40001600130436001375F50F09063A95137650
:100A5000F60F14A13A96A1851374F40F0CA2BE846C
:100A6000A9BD930620026386D400930670026391A9
:100A7000D408138517002A8381469302E005830575
:100A800003006387B400811593F5F50F63F4B20496
:100A90009307F004958F635AF60CB307C70013044D
:100AA00026000506930560021374F40F1376F60F03
:100AB0008CA33A96B387860014A293F7F70F2A8681
:100AC00083050600631EF400B307D500E399B4F86C
:100AD000850771B793871600050393F6F70F45B79F
:100AE000130314003A940CA005061374F30FC9BF46
:100AF000268532C43EC2293605C922469306D00453
:100B000063E5C6068D4692471387C18963F0C60226
:100B1000B305C70083C6E5FF130550026398A6001E
:100B200083C5C5FF6394D500514789A0B306C700AC
:100B30009305500226853EC432C28CA2413C124627
:100B40001387C1891304260005061376F60F3A961B
:100B50001305F5FB1374F40F08A2A24795BF328466
:100B6000B9BB9306E004E3FC86DC1147238EE186E3
:100B7000014571016FF06FD31387C1931385C19342
:100B80001C2399E7198D1305F51F420541858280C5
:100B90003E97FDB71C2181CB3C210831A2075D8D1A
:100BA00042054185828021657D158280EFF24FCF1D
:100BB0007111AA871384C193042089E4228511014D
:100BC0006FF0AFCE22853EC0F1378247E358F5FE85
:100BD0002694DDB7EFF2CFCC7111793F03C7C189FD
:100BE0006358E5001547238EE18611016FF0EFCBC6
:100BF0001385C1899384C189713F2AC0453F2A84E6
:100C0000513F82476397A7021820A286229710239C
:100C100019CE814729A0B385F60088A18507B305C1
:100C2000F7008821E319F6FE2E87B296CDB7238010
:100C300006008C201147A287E389E5FA98231DE777
:100C4000B38687408506C206C1823386E600420627
:100C5000418219EE98208147E309F7F8B386F40042
:100C60009022B306F400850790A2FDB7BA97F9B7B2
:100C70003386E70008223386E5003E9608A27D17FA
:100C8000E9B7EFF2EFC15111AA84982093067002E0
:100C90006308D7049306300263E0E606B706002037
:100CA0009386C6050A0736970843EFF09F9688207B
:100CB0008D654D46938545AFEFF0FF8E09E5130531
:100CC0000002EF00B060942021476393E602803079
:100CD00089047D141374F40F9307F00F6315F40067
:100CE00031016FF08FBC88208504EF00305ED5B7EE
:100CF00013841400A28451BF930640026319D702E3
:100D0000A820983081452205598D42054185F13A48
:100D1000A8308D67138434003D46938587B0EFF08B
:100D20009F8869F913050002EF00505AE1B7930656
:100D300050026311D7028830138424001305150470
:100D40001375F50FEF0090588D673D46938587B07A
:100D5000A820F1B7930660026317D7069830930670
:100D6000200226976391E4049307200293F7F70F7C
:100D70003E853EC0EF009055938624008430B687B0
:100D800026847D141374F40F1306F00F6314C40249
:100D9000024533849600EF007053182093075002E9
:100DA000E31AF7F441B77D173023E31DD6FA930712
:100DB00070026DBF882336C43EC2EF0030519247A7
:100DC000A24685077DBF5547238EE18611BFEFF20E
:100DD0002FAD0D2483C7C1877D54BDE32A8403A7AB
:100DE00041871546938641871C23AD1793F7F70F6C
:100DF0006368F6040D66130606998A07B297904356
:100E0000930717009CC20286F522098C1334140044
:100E1000F9B7CD22098C33348000D1B7E12A3324CD
:100E2000A40075BFC12A332485001344140045BFB4
:100E3000D1223324850065B7752A3324A400F5B781
:100E400022856FF08FA6EFF2AFA5138441871C4077
:100E50004D4794239384C1876386E600C5479CA0D1
:100E6000014529A885071CC09D379C20F5FB1C4027
:100E700051479423E394E6FE85071CC06FF0EFA270
:100E8000EFF20FA20D667111814505445943130617
:100E9000869A83A74187138741879423C51693F6C3
:100EA000F60F6369D30E8A06B296944282869386C1
:100EB000170014C3AC2394338D07A205D58DC2054A
:100EC000C1851CC32285EFF0EF9E420541851101CB
:100ED0006FF0AF9D85071CC36DBF3304804085074D
:100EE00042041CC3418475B79386270014C39C3306
:100EF000139717009387C1B7BA9783950700D9B79F
:100F00009937AA85C1B785071CC3353F9387C18729
:100F10009823AA8545FB7D476355A7000D4798A3F5
:100F200055B79317150093854183BE9583950500AA
:100F300051BF85071CC3013F83C7C187AA85D9F369
:100F40002AC0EF1000778245EFF0CF9D9315050181
:100F5000C1858DBF85071CC3FD3583C7C187AA85A1
:100F6000B5F3E35105F6B305A040C205D5B79386A6
:100F7000170014C39033CD466316D600B023D14674
:100F80006306D6004547238EE1862DBF8D071CC31F
:100F9000E53685BF5147C5BFEFF28F90D53503C702
:100FA000C187AA841384C18721E39386418798422D
:100FB000C54510236308B600C9456300B6022685FF
:100FC0006FF0AF8E050798C2653DAA852685EFF0C4
:100FD0006F8E93140501C184C9BF050798C24D35B2
:100FE000AA8509E585471CA0FD54D1BF2685EFF0F1
:100FF000EF8DC5B7EFF2CF8A453783C7C1877D54E0
:1010000085EB2A84138741871C433D469423638CD8
:10101000C6004146639EC60085071CC3B53F2A949F
:1010200042044184C5B785071CC3BD37098CCDBFB9
:1010300022856FF08F87EFF2AF867111814483A70D
:101040004187B9461384418798236306D7009306E6
:1010500070026315D700EF00302EADA0D946630CA7
:10106000D704930660026312D7061387270018C0BF
:101070009C33FD1793F7F70F9306F00F1840639317
:10108000D7021840B5461C236399D704930717006D
:101090001CC01C3339476387E70213077002E390D3
:1010A000E7FA0DA09306170014C008233EC0EF0016
:1010B000F02182477DBF85071CC0113B83C7C187D4
:1010C000AA84E1D311016FE05FFE113383C7C187AA
:1010D000F5FBA685EFF06FE16DB73947E381E7F6E1
:1010E00013077002E38DE7F45147238EE186D9BFE1
:1010F000EFE21FFB611183A741879306600213840F
:10110000418790230547631FD6001387270018C027
:101110008433FD1493F4F40F1307F00F1C40639D08
:10112000E40601471C409385C18794236D462EC079
:10113000638BC606130650026396C60C938617008F
:1011400014C001CF8833130515041375F50FEF0094
:10115000F0171305A003EF007017EFF0AFE382471D
:101160009C23ADE31C401387170018C09C231397E2
:1011700017009387C1B7BA978AA31C40B946982332
:101180006302D70493067002630ED702B546631B51
:10119000D70685071CC085B71387170018C088239A
:1011A000EF00D012BDB785071CC03AC2693982472B
:1011B000AA849C2381EBFD47124763D8A7008D4783
:1011C00002471CA321016FE05FEE0DC3373500001D
:1011D000130585B1EFF0EFC326858145EFF0EFD021
:1011E000373500001305C5B1EFF0AFC2EFF08FDA6D
:1011F00082479C23E1FB9397140093844183BE9420
:101200008AA0A5BFD1476DBFEFE29FE91387418751
:101210001C431384C1879386170014C39033E1469F
:101220006306D600C9471CA06FE03FE88423890706
:101230001CC3713E1C20EDFB86049387C1B7A697A3
:101240008AA3DDB7EFE2DFE5FD3E1384C1871C20F2
:1012500099E7FD47AA8463D6A7008D471CA06FE0DD
:10126000DFE4938741879843E14610236304D60067
:10127000C947EDB7050798C3EFF07FB51C20E5F32C
:10128000860493874183A6978AA3D1BFEFE25FE1EB
:10129000138741871C436D469423638BC600130656
:1012A0005002639BC60085071CC3B93F6FE0FFDF98
:1012B00085071CC3413FDDBF3947238EE186FDB75B
:1012C000EFE21FDE611183A74187138441879423D6
:1012D00093077002638DF600EFF0AF9C11CDEFF035
:1012E0006F9EED47631AF5005947238EE18603A5EB
:1012F00081871C213E9525A01C4013065002942393
:101300006362D6300D668A06130646A0B2969442F2
:1013100082861387818708431C216397072A21014E
:101320006FE0BFD885071CC0EFF07FAA83C6C187D6
:10133000B1EE2AC0EFF09F87AA84EFF0BF85824705
:101340006306F5004147238EE18689A023AC918690
:101350008D0404C08DBF85071CC0EFF05FA7938686
:10136000C187902205E62AC0EFF05F84AA84EFF0DF
:101370007F8282479386C187E316F5FC9385818936
:101380009C2111466376F60099479CA2014541BF16
:10139000138681870323060093860188139527000F
:1013A00036952320650013852700850793F7F70FEF
:1013B0008A07B697144088A11385340094C304C2E9
:1013C00008C011B7938581899C21854663E4F600A6
:1013D0001D4795BF9386F7FF93F6F60FF91713860F
:1013E000018893F7F70F8A06B2969CA18A07944268
:1013F000B297984314C023ACE186E9A893862700EE
:1014000014C08C33130650029384C1876385C500D2
:10141000B1479CA0A5BFBC233EC0FD339C20BDF7B7
:101420001C4011468C236393C50285071CC0EFF056
:101430001F9A1C40AA8515468823630BC5000545E5
:10144000A167FD17898F63C2B7021DA0B547D1B749
:1014500085072EC21CC0EFF09F9792456359050087
:10146000E1778507898F63D5F50089475DB769F90D
:10147000138681B71C2229436374F300A14751BF2F
:1014800083A281879386C1B31393270036932320C9
:1014900053001383170018401373F30F0A03369396
:1014A0002320E300138727001377F70F0A073697E7
:1014B0000CC3138737001377F70F0A07369708C353
:1014C00013875700910718A293F7F70F02478A076F
:1014D000B69798C383C7C187E38707DE45BD938668
:1014E000170014C083C681B711461383C1871385C3
:1014F00081B76366D600A5472300F30041BD938200
:10150000F6FF9385C1B38A02969583A20500938561
:1015100027000CC083C31700930550021386C1B384
:101520006384B300A947C9BF938537000CC0AC23BF
:10153000C20293D2024163845500AD4775BF9392B6
:1015400015009387E6FF8A079385C1B79695B297F2
:1015500083D205009C43139307019697C207C18766
:101560009EA19385D6FF8A05B295135303418392BA
:1015700005009385B6FF635D030063CF5700F11646
:101580008A06B2969C428A052E961CC01842A5B5C2
:10159000E30703FEE3D5F2FE0CA12DBF85071CC0B7
:1015A000EFF0FF829387C187942381C63D4798A3BC
:1015B000F1BBE31A05D0930670021C409023E30BA5
:1015C000D6F085071CC0D5BF3E9508C399B38507E3
:1015D0001CC01D3901B785071CC0AD31E5BD8507AD
:1015E0001CC06D31C5BD85071CC0EFF0DFA4DDB5A3
:1015F00085071CC0EFF0DFAFF1BD4D47A9B38507EC
:101600001CC0C9BD514781B3EFE29FA9238C01885B
:10161000238C01B69387C19323ACF1861384818711
:101620001C40982319E36FE05FA88D0723AAF18679
:10163000413983C7C187E5FB08C0DDB7EFE25FA68C
:1016400003A5418793074002611114210147639567
:10165000F600EFF02FD42A879387C19323ACF1864D
:101660001384818704403AC29C203EC081CB2685EA
:10167000EFF04FD2124782476343E50005A8BE94BE
:1016800004C0CDB7EFF00FD18145EFF00F86130501
:1016900000022D2908400D05EFF0AFDE83C7C1879A
:1016A00089EB59291C409823BA971CC008401C217B
:1016B000F1FB21016FE07F9F9387C1B71387470339
:1016C000239007008907E39DE7FE938741831387F3
:1016D0000704239007008907E31DF7FE238C018888
:1016E000238C01B69387C1932380070023ACF18636
:1016F0008280EFE2FF9A511137440008EF00301565
:10170000130404C0B74400082285EF00B01CB7479B
:10171000000813040404938707E0E317F4FE93879B
:10172000C189138404C0B74400083EC0938404E018
:10173000EF00701482460146B832AC2233058600B1
:101740006207C2052E978C3236C432C2A2052E978C
:101750008C22BA95EF00B0141246A246130700047B
:1017600011069106E31AE6FC2285EF00101A824763
:1017700013040404938707043EC0E31B94FAEF00AC
:10178000F00E31016FE07F928147374500081387E3
:10179000C189930600203306F500834506C0330651
:1017A000F70085070CA2E398D7FE8280EFE25F8FF7
:1017B0009387C18923AAF1869C231146851793F745
:1017C000F70F6366F6060D661306C6A98A07B29779
:1017D0009043938641879387D1891387C1899CC29F
:1017E00002861833930770026315F700F1356FE036
:1017F000DF8B5147238EE186DDBF143393077002E0
:101800006385F6005823E316F7FE0D3DCDB7ED3B9B
:10181000F9BF183393077002E31DF7FCD93DC1BF30
:10182000183393077002E316F7FCB93FC9B7EFF01E
:101830003FA975BFEFE2DF8683C7C1871384C187E5
:10184000A1C703A741879387C1936360F706938776
:101850000720637CF704938481879C409C23B1C755
:10186000E12C37350000130505AEEFE09FDA884024
:10187000EFF04FB28145EFE05FE713050002B924B6
:1018800088400D05EFF0EFBF452C1C201397270073
:10189000B707002093870700BA978843EFE07FD708
:1018A000612C230004006FE05F807924373500004D
:1018B000130585AEEFE0FFD51385C18EEFE07FD530
:1018C000E1B7EFE2EFFDCD3B37350000130505AB87
:1018D000EFE03FD4952437350000130585ACEFE0E9
:1018E0005FD337350000130545ADEFE09FD2A92443
:1018F00091371305E003D92AEFE05FD3EFE05FFAF9
:101900009384C1879C2099C33537E5B79387C189F4
:101910009423130740026398E60088A3EFF08FAB8F
:101920009C20E1DBD5B75935C5B77300203001A045
:10193000EFE20FF71384C1BB08401306000B9305B9
:101940000501EF0070450840414681451305050B30
:10195000EFE0AFFF6FE06FF5EFE28FF40965130181
:10196000C1FB85451305058102D002D202D402D6FF
:1019700002C402C62318010002CA02CC02CE02D859
:1019800002DA02DC02DE2310010402C002C2EF0010
:10199000D017C147FC820D44E1474C083715014080
:1019A0003ECE22CCEF00A079E147130700044C089B
:1019B000371501403ECEF88222CCEF004078373414
:1019C000014005671307A7BE2C00130504C03AC6E3
:1019D00002C4C164EF00301B938404071307100E88
:1019E0000C10130504C026D02313E10223140102B6
:1019F000EF0090271307E0150C10130504C0231304
:101A0000E10226D023140102EF00D01C130504C00C
:101A10008545EF00D02D130504C08145EF005031FE
:101A2000130504C08145EF009031130504C08545BE
:101A3000EF00702E130504C08545EF00D02937C78D
:101A400004013AD8E147370702003ADA3EDE3707A9
:101A500000029D470C18373501403ADC2310F10491
:101A6000EF00900C0546894537350140EF00901096
:101A7000854537350140EF00500E930750227C809A
:101A80000A8585473EC223010100EF00C07B054661
:101A9000A145130504C0EF00F0261305000CEF006C
:101AA000D02E23AEA1BA4545EF00302E138441BBA2
:101AB000AA8408C04545EF00502D48C02388040083
:101AC00023080500130141046FE02FDE938701BB5B
:101AD000A14698236305D504EFE28FDC138411BB84
:101AE000102083A6C1BB1206B296369708A398238E
:101AF000BD4605071377F70F63E5E60098A36FE08F
:101B0000CFDA238007001C20AD44850793F7F70F39
:101B10001CA0E3F6F4FEEFF0BFE104A0CDB701C7CF
:101B20007D1798A38280138711BB142389C6FD16E5
:101B300014A33D47FDB78280EFE28FD6138411BB1B
:101B4000238801BA1C20AD44850793F7F70F1CA02A
:101B500063F5F400EFF0DFDD04A06FE00FD5EFE2F6
:101B60002FD41301C1FC2A842EC2B28481451306EE
:101B7000C002280036C0EFE04FDD85450545BD2792
:101B80002285B926924782462C003EC4C1473EC8F2
:101B9000930700083ECE22858D6726C636CA3ED6FC
:101BA00002CC02D002D202D402D8652E1301410326
:101BB0006FE0AFCF611126C0B7340140A145138556
:101BC00004C022C2EF005019138721BB1E231384C7
:101BD00021BB8507C207C1831EA31E230D47630ACD
:101BE000F7001E2011476306F7001E201547631AF1
:101BF000F70E856537350140938595B0130505C00F
:101C0000EF0050151E2013077002637CF7021E20A0
:101C10001307700E6367F7021E20B7040240B73542
:101C20000140858B13972700938741BBBA97904358
:101C3000B90513850403C5461D378545138504037F
:101C4000A92E1E20130760026371F7081E201307D8
:101C5000600E636CF7061A201E20B7060080BD06D2
:101C6000938797FD4207F58F418363D60700FD17E1
:101C700093E707FF8507930697FD13D7F6413D8B42
:101C80003697118793F7F70F1377F70F8D658583D5
:101C900012070146138541BB938505D941431620A0
:101CA0008506858A8A06AA9683A3060083A6C1BBF9
:101CB000B293BA96B296942205068E06AE96BE965A
:101CC00094222380D300E31C66FC1E2013076010BF
:101CD0006374F7002310040012448244210173004E
:101CE00020309305100E138504C019BFEFE24FBBDF
:101CF000B7F700E023A407009843094513671700CE
:101D000098C33D2BEFF05FC503A5C1BB1306000CC4
:101D10008145EFE08FC3EFE0EFFFEFF09FBAF5BF33
:101D2000B71702409843B706FFFC6111136717000D
:101D300098C3D8432166758FD8C39843B706F7FE7A
:101D4000FD16758F98C39843B706FCFFFD16758F77
:101D500098C3D843C176FD16758FD8C337079F0047
:101D600098C702C002C2984FB70601401367170018
:101D700098CFD842518FD8C29843C1663706020027
:101D8000558F98C3B716024009679C42F18F3EC237
:101D9000824785073EC0924781E78247E397E7FE87
:101DA000B71702409C431397E7006358070685471F
:101DB0003EC2124785476310F706B7270240984393
:101DC000C176FD16719B98C398431367170098C39B
:101DD000B7170240D843D8C3D843758FD8C3D84368
:101DE000C166558FD8C39843B7060001558F98C375
:101DF000984393166700E3DD06FED843B71602400A
:101E0000719BD8C3D84313672700D8C32147DC424E
:101E1000B18BE39EE7FE2101828002C259BF01A07F
:101E200001A001A001A001A001A001A001A001A0AA
:101E300001A001A001A001A001A001A001A001A09A
:101E400001A001A001A001A001A001A001A001A08A
:101E500001A001A097F1FF1F9381C1AF138101EB96
:101E6000171500001305857397E5FF1F93858519E6
:101E70001386818063FAC5008322050023A05500E4
:101E800011059105E3EAC5FE13858180938581BC28
:101E90006377B500232005001105E36DB5FE9302BD
:101EA0000008739002308D427390428097E2FFFFEA
:101EB0009382421593E2320073905230EFF05FE666
:101EC000970200009382C2E27390123473002030B4
:101ED0001C4141677917F98F1CC12320050023227B
:101EE000050023240500B7070240232605001387B9
:101EF00087006317E500D8431367F700D8C38280D3
:101F00001387C7016316E500D8431367070FFDB7B2
:101F1000138707036318E500D8438566938606F0A8
:101F2000558FE9BF138747046315E500D843BD66A5
:101F3000C5BF138787056316E500D843B7060F00B2
:101F4000C5B71387C7066316E500D843B706F00088
:101F5000C1BF13870708E314E5FAD843B706000F9B
:101F6000C1B71841E177BD0794517D8F9C45D58F4E
:101F70009449D58FD449D58F944DD58FD44DD58FD5
:101F8000D451D58F9455D58FD98F1CC1DC455CC1F8
:101F90009C411CC5DC415CC582801C4189C593E71E
:101FA00017001CC1828041677917F98FDDBF584146
:101FB000032305004C4537060140930706403E9732
:101FC0009346F3FFB1C583250640F58D2320B64027
:101FD000D043F18ED4C31443B3E6660014C3184152
:101FE00090479346F7FF758E90C7D047F18ED4C7C0
:101FF000144541466399C6009447D98E94C7D44787
:10200000558FD8C78280B6979443558F98C38280E6
:102010001C43F58F1CC38280B7070140138707401C
:1020200083A70740584B698F09C77D8D3335A000C2
:10203000828001458280B707014023AAA7408280A1
:10204000372702401C4B93E707081CCB8280B7065A
:102050006745B7270240938636123797EFCDD4C332
:102060001307B79AD8C3D4D3D8D38280EFE24F8373
:10207000C13F6FE08F83B7270240984BC166558FF1
:1020800098CB984BB7060800558F98CBD847058B4F
:1020900075FF984BC176FD16758F98CB8280B70778
:1020A00000F8AA97116763F6E702B7270240984B3A
:1020B000C166558F98CB0CC1984BB7060400558F5D
:1020C00098CBD847058B75FF984BC176FD16758F59
:1020D00098CB8280B70700F8AA97116763F6E702EA
:1020E000B7270240984BB7060200558F98CBC8CB54
:1020F000984B1367070498CBD847058B75FF984B0F
:102100008176FD16758F98CB8280B70700F8AA9765
:10211000116763F5E702B7270240984BC166558FF8
:1021200098CBC8CB984B1367070498CBD847058B3F
:1021300075FF984BC176FD16758F98CB82809C45B4
:10214000611122C226C013F7070113F3F70001C77C
:10215000D8413363E30092211377F60F29C7832315
:102160000500014713048002930480048546B3955B
:10217000E600B376B6006392D50293122700BD46FF
:10218000B396560093C6F6FFB3F37600B31253002E
:10219000B3E37200639787064CC90507A146E317AE
:1021A000D7FC232075001307F00F6378C70483233F
:1021B0004500A14613048002930480040547B3122E
:1021C000D700337756006394E20213972600011775
:1021D000BD45B395E50093C5F5FFB3F3750033171F
:1021E000E300B363770063928702232A55008506D4
:1021F0004147E395E6FC2322750012448244210105
:102200008280E39C97F80CC949BFE39297FE23288C
:102210005500F1BF08456D8D3335A000828037072A
:102220000140144786058D47B397B70093C7F7FF62
:10223000F58F1CC71C47B315B500DD8D0CC7828018
:1022400023A0A1BC8280938701BC9443182181E61E
:102250003C21920721A894430546639FC6023C2176
:10226000103192076314D60093E707F8B7E600E051
:1022700093F7F70FBA962380F64085469357570099
:102280003397E6005441A5C2938707048A07B7E64F
:1022900000E0B69798C382808C4389466391D5024B
:1022A00014313C216365D6008A06B6975DB79386E4
:1022B000E6038A06B69793F7F70F920775B7904330
:1022C0008D46631CD60014313C216364D60086061B
:1022D000E9BF9386C6078606F1BF94439147E39E04
:1022E000F6F81C31BDB7938707064DB799C5371768
:1022F00002405C4B5D8D48CB8280B7170240D84BC3
:102300001345F5FF798DC8CB828099C537170240F8
:102310001C4F5D8D08CF8280B7170240984F134540
:10232000F5FF798D88CF82801A218D679387070406
:10233000B6217D8F9E21D58FD621D58FF621D58FC1
:102340009625D58FB625D58FD625D58FF625D58F51
:10235000D98F1EA19E291EA982801E2189C593E7BF
:1023600007041EA18280C207C18393F7F7FBC2074F
:10237000C183C5BF5E2101C6DD8D4EA1828093C59C
:10238000F5FFFD8DDDBF1E2137370140130707C064
:10239000C207C1836306E500370700406316E50006
:1023A000BA2193F7F7F8D98FFA2193F7F7CFC2073D
:1023B000C183D98F1EA1DE215EB59E211EB5B73720
:1023C0000140938707C06314F5009C251EB985471B
:1023D0005EA982801E31922103D38500C207C1838A
:1023E00093F7F7EFC207C1831EB11E3156215A2D54
:1023F000C207C183420741831377C7F8518FB221C7
:1024000093F7F7DFC206336666002206D18F139674
:102410000701B7370140938707C0C1824182631F1C
:10242000F502FD779387F77FF18FB22503D3C500BF
:102430002206D18FD221C207C183220693F7F7BFAC
:10244000D18F13960701F577FD17FD8EFE2541828A
:10245000B3E767009207DD8EC206C182FE2156A156
:102460005AAD5CDD12B182801A31FD77FD17F98F0C
:102470001EB1035305025A215E2DE5769386F6CFF1
:10248000FD8E9E2113160701BA21A207DD8EF97772
:10249000FD17B3F7670003D38500C2064182336797
:1024A00067003207D98F37370140C207130707C0CB
:1024B000C182C183631BE50071777D17718FD225BF
:1024C0001A06518F131607014182FA2152A156AD07
:1024D00038C11EB182801E2189C593E717001EA155
:1024E0008280C207C183F99BC207C183CDBF8357D6
:1024F000450491C52167D98F2312F5048280C60750
:10250000C583DDBF5E2501C6DD8D4EA5828093C5E6
:10251000F5FFFD8DDDBF1E2189C593E707081EA1CC
:102520008280C207C18393F7F7F7C207C183C5BF93
:102530005E2DC207C183DD9BDD8D4EAD82805A2D9D
:10254000FD779387F77FF98FA205CD8FC207C183EF
:102550005EAD82802CC1828093C5F5FFC205C1812A
:102560000EA98280370700201307C70E1C439386ED
:1025700081BC3E956369D500938601DB63E5A600C7
:1025800008C33E858280FD57EDBF97E7FF1F938705
:1025900067BCAA858843A1A063F1A504B386C500E2
:1025A000637DD5029345F6FF8147FD176393F500E0
:1025B00082803387F600034307003387C7002A97DA
:1025C00023006700DDB73387F50014233307F500D8
:1025D000850714A3E319F6FE82808147E5BF411108
:1025E00026C293843500F19806C622C4A104B147DF
:1025F00063F5F404B14463E4B4042AC0912A138758
:10260000818014438247368439E01387C1801843A0
:1026100001EB3E8581453EC0392223A6A180824739
:102620003E85A6853EC001227D5782476314E5069C
:10263000314798C33E85312A29A0E3DE04FAB14729
:102640001CC10145B240224492444101828018409D
:10265000058F634E07022D466376E60018C03A9454
:1026600004C031A058406392860223A4E1803E85D5
:10267000CD201305B400130744006199B307E5406A
:10268000F1D33E94098F18C075BFD8C2CDB7A286CA
:1026900040409DBF130435007198E30385FCB305EA
:1026A000A4403E853EC041207D578247E31AE5FAAB
:1026B00041B7511197E7FF1F9387C7A922C28043F3
:1026C00006C41C5C95EB6145EFF03FECB737CDAB32
:1026D00008DC9387E7301CC1B7176DE69387472363
:1026E0005CC1B7E705009387C7EE1CC5AD475EA583
:1026F0000547814718C95CC9005C9717000093879C
:1027000067E9904308484C48D443A9209307150033
:1027100033B5A7002E9548C81CC8A2401244060530
:10272000058131018280511122C22A842E8523A283
:1027300001BC06C4EFF01FE3FD576317F500938754
:1027400041BC9C4391C31CC0A24012443101828011
:102750008280828021112AC236C006CAAA8622C877
:1027600026C6328732C4814701450143338666005D
:10277000937317003304F50093D2F6010583B33445
:1027800066008607638503003385840032838606EE
:10279000B3E7570061FFAA8789C52245EFD09F9113
:1027A000AA97024711C71245BA85EFD0BF90AA97E2
:1027B000D2404244B2441A85BE8561018280000045
:1027C0002F000000000000000000000000000000DA
:1027D0000D000000000000000000000000000000EC
:1027E000000800000000007F0A00150B0000000038
:1027F0001A000019000000000000000000000000A6
:1028000000090000000000000071310000007A7330
:1028100061773200006378646534330000207666A7
:1028200074723500006E62686779360000006D6A68
:1028300075373800002C6B696F303900002E2F6C13
:102840003B702D00005C3A00405E000000000D5B14
:10285000005D00000000000000007F0000315C34DB
:1028600037494A00302E323536381B00002B332DC5
:102870002A390000000000000000000000000000F5
:10288000000000000000000000090000000000003F
:102890000051210000005A53415722000043584480
:1028A000452423000020564654522500004E42483D
:1028B0004759260000004D4A55272800003C4B4947
:1028C0004F002900003E3F4C2B503D00005F2A0086
:1028D000607E000000000D7B007D00000000000015
:1028E00000007F0000317C3437000000302E32358C
:1028F00036381B00002B332D2A3900000000000061
:1029000000000000000000000000000000000000C7
:1029100000000000000000000000000000000000B7
:1029200000000000000000000000000000000000A7
:102930000000000000000000000000000000000097
:102940000000000000000000000000000000000087
:102950000000000000000000000000000000000077
:102960000000000000000000000000000000000067
:102970000000000000000000000000000000000057
:102980000000000000000000000000000000000047
:10299000380E0000120E0000300E0000080E00007D
:1029A000240E00001C0E0000DA0E0000D40E000001
:1029B000940F0000940F0000000F0000940F00001F
:1029C000940F0000940F0000940F0000940F00007B
:1029D000940F0000940F0000060F0000320F00005B
:1029E000540F00006E0F0000940F0000940F0000C1
:1029F000940F0000940F0000940F0000AE0E000032
:102A0000E80E00002413000056130000C413000059
:102A1000FC1300000416000004160000DE14000081
:102A20009C150000B615000012130000F015000000
:102A3000E6150000DE15000004160000FE1500007B
:102A4000041600000416000004160000041600001E
:102A5000041600000416000004160000041600000E
:102A600004160000041600000416000004160000FE
:102A7000D61500000416000004160000041600001D
:102A8000FA150000FA150000FA150000FA1500000A
:102A9000FA15000004160000CE150000FA17000019
:102AA0000E180000E21700001218000020180000A5
:102AB000544F594F5348494B492054494E5920428D
:102AC000415349430000000043483332563030330D
:102AD000000000002045444954494F4E00000000CA
:102AE0004C494E453A000000594F55205459504525
:102AF0003A20000002090D0F1011121314151617B9
:102B000018191A1B1C1D1E000F1011121314151674
:102B10001718191A0D0E270040280000293A000046
:102B20004F4B00004465766973696F6E20627920AF
:102B30007A65726F000000004F766572666C6F7781
:102B400000000000537562736372697074206F75C2
:102B500074206F662072616E6765000049636F6460
:102B600065206275666665722066756C6C00000093
:102B70004C6973742066756C6C000000474F5355A8
:102B80004220746F6F206D616E79206E657374657D
:102B90006400000052455455524E20737461636BBB
:102BA00020756E646572666C6F770000464F522028
:102BB000746F6F206D616E79206E6573746564004B
:102BC0004E45585420776974686F757420464F528B
:102BD000000000004E45585420776974686F757482
:102BE00020636F756E746572000000004E45585486
:102BF000206D69736D6174636820464F5200000058
:102C0000464F5220776974686F75742076617269D7
:102C100061626C6500000000464F5220776974685D
:102C20006F757420544F00004C45542077697468C8
:102C30006F7574207661726961626C6500000000D6
:102C4000494620776974686F757420636F6E646994
:102C500074696F6E00000000556E646566696E658C
:102C600064206C696E65206E756D6265720000008F
:102C7000272827206F722027292720657870656311
:102C800074656400273D272065787065637465640A
:102C900000000000496C6C6567616C20636F6D6DAE
:102CA000616E640053796E746178206572726F7220
:102CB00000000000496E7465726E616C206572726E
:102CC0006F72000041626F7274206279205B45531D
:102CD000435D0000474F544F00000000474F5355DD
:102CE0004200000052455455524E0000464F5200DB
:102CF00053544550000000004E4558540000000059
:102D00004946000052454D0053544F50000000000A
:102D1000494E5055540000005052494E5400000096
:102D20004C4554002C0000003B0000002D0000002A
:102D30002B0000002A0000002F00000028000000E7
:102D4000290000003E3D0000230000003E0000007E
:102D50003D0000003C3D00003C0000004000000041
:102D6000524E44004142530053495A45000000006E
:102D70004C4953540000000052554E004E45570038
:102D800053415645000000004C4F414400000000F4
:102D900000000000000000007E427E427E42820071
:102DA00010925410284482001214F81434529200E5
:102DB0001010FE103854920010287C923854FE00F7
:102DC0001010107C1010FE007E42427E42427E00B7
:102DD000407E483C287E0800FE9292FE8282860059
:102DE00004EEA4EFA2EA06002844823C14244C001E
:102DF00028C85CEA6CC850007C207C447C447C0081
:102E00000C7010FE101010007E101E1222440800DC
:102E1000007C2828284E0000101010FF0000000041
:102E2000000000FF10101010101010F01010101003
:102E30001010101F10101010101010FF1010101094
:102E40001010101010101010000000FF0000000003
:102E50000000001F10101010000000F010101010E3
:102E60001010101F00000000101010F000000000F3
:102E70008142241818244281107C101028448200BA
:102E80001010FE92FE1010001010545492103000DA
:102E90000000000000000000202020200000200092
:102EA00050505000000000005050F850F8505000B2
:102EB0002078A07028F02000C0C81020409818008A
:102EC00040A040A890986000102040000000000042
:102ED00010204040402010004020101010204000E2
:102EE00020A8702070A82000002020F820200000DA
:102EF00000000000002020400000007800000000DA
:102F00000000000000606000000008102040800009
:102F1000708898A8C88870002060A0202020F80041
:102F2000708808106080F800708808300888700089
:102F300010305090F8101000F880E0100810E000F9
:102F4000304080F088887000F88810202020200011
:102F50007088887088887000708888780810600091
:102F60000000200000200000000020000020204081
:102F7000183060C0603018000000F800F800000051
:102F8000C06030183060C000708808102000200039
:102F900070880868A8A8700020508888F888880081
:102FA000F04848704848F000304880808048300041
:102FB000E05048484850E000F88080F08080F800F9
:102FC000F88080F080808000708880B888887000E9
:102FD000888888F888888800702020202020700049
:102FE00038101010909060008890A0C0A0908800C9
:102FF000808080808080F80088D8A8A88888880091
:1030000088C8C8A8989888007088888888887000C0
:10301000F08888F08080800070888888A890680098
:10302000F08888F0A0908800708880700888700010
:10303000F820202020202000888888888888700038
:103040008888888850502000888888A8A8D8880058
:103050008888502050888800888888702020200028
:10306000F80810204080F800704040404040700058
:103070008850207020702000701010101010700008
:103080002050880000000000000000000000F80050
:1030900040201000000000000000700878887800D0
:1030A0008080B0C888C8B000000070888088700038
:1030B000080868988898680000007088F880700098
:1030C000102820F8202020000000689898680870D8
:1030D0008080F08888888800200060202020700090
:1030E0001000301010109060404048506050480070
:1030F00060202020202070000000D0A8A8A8A800F0
:103100000000B0C888888800000070888888700037
:103110000000B0C8C8B080800000689898680808AF
:103120000000B0C88080800000007880F008F000C7
:103130004040F0404048300000009090909068007F
:103140000000888888502000000088A8A8A85000A7
:103150000000885020508800000088889868087017
:103160000000F8102040F80018202040202018000F
:103170002020200020202000C02020102020C0007F
:1031800040A8100000000000000000000000000047
:1031900010387CFEFE387C006CFEFEFE7C38100091
:1031A0003838FEFED6107C0010387CFE7C381000CB
:1031B00000788484848478000078FCFCFCFC78002F
:1031C00020F04C70A8403C000020782078B46400C7
:1031D00000008884848440000070007088083000FB
:1031E000007000F0206098000020F82478A46800A7
:1031F00000905864A82010000010B8D49418200043
:1032000000101C107098740000000078040438004E
:103210000000000000000000207C207CAA926400D6
:1032200000848282828040003800384404083000E4
:103230007000F81020609C0024FA207CA2A24400B8
:103240004044F24A4888300020FC10FC0880780096
:10325000081020402010080004849E8484844800C4
:103260007804000000807C0010FE080404807800D0
:10327000808080808488700008FE384838081000FC
:103280004444FE4448403C004428FE2040403C006A
:1032900000000000000000000000000060906000DE
:1032A0003820202000000000000000202020E00046
:1032B00000000000804020000000003030000000CE
:1032C000F808F808102040000000F010604080006E
:1032D00000102060A02020000020F090102040006E
:1032E0000000F0202020F0000020F060A0A02000CE
:1032F0000040F84850404000000070101010F800E6
:103300000000F010F010F0000000A8A80810200045
:103310000000807C00000000F808283020204000D9
:1033200008102060A020200020F8888808102000C5
:1033300000F820202020F80010F8103050901000E5
:1033400020F828282848880020F820F8202020008D
:10335000784888080810200040785090101020000D
:1033600000F808080808F80050F850501010200025
:1033700000C008C80810E00000F8081020508800BD
:1033800040F84850404038008888480810204000E5
:10339000784878880810200010E020F820204000AD
:1033A000A8A8A808081020007000F82020204000DD
:1033B000404060504840400020F82020202040003D
:1033C000007000000000F80000F808D020508800CD
:1033D00020F80830E820200008080810204080006D
:1033E00020104848484888008080F8808080780015
:1033F000F8080808102040000040A010080800004D
:1034000020F82020A8A8200000F80808502010006C
:10341000F000600000F00800102040809088F80064
:1034200008080850205080007820F820202018003C
:1034300040F8484850404000007010101010F8004C
:1034400000F808F80808F8007000F80808102000D4
:10345000484848484810200010505050505890009C
:10346000404040484850600000F888888888F8004C
:10347000F88888080810200000C000080810E00044
:103480009048000000000000609060000000000014
:1034900020F8204E40908E0010FE20780404780022
:1034A00000FC020202041800FE08102020201C006C
:1034B0002024386080807C002CF244449C261C0030
:1034C000009E808080904E0048487CD2B6AA4C0076
:1034D000404CD2624ED24E0000385492A2A2440018
:1034E000049E84848C964C0010E4264444483000AA
:1034F000201000201452B200000020508804020066
:103500001E849E848C964C0010FC10FC70987400F5
:103510007010147EA4A4480020F42260A2621C0053
:1035200048487CAA92A2440020F820F820241800E1
:10353000485C6AE224101000109CB2D2921C200059
:10354000101C101078947000601080B8C48438008B
:10355000088484844408300078103844B44C38001F
:10356000202CF42464A426007810207884043800E9
:103570004040DC6242C244001010202060528C00A7
:10358000000000000000000000000000000000003B
:083590002D7F954C2DF45158DC
:10359800202B0000242B0000382B0000442B0000B7
:1035A8005C2B0000702B00007C2B0000942B00008B
:1035B800AC2B0000C02B0000D42B0000EC2B00002B
:1035C800002C0000182C0000282C0000402C0000C3
:1035D800582C0000702C0000842C0000942C000053
:1035E800A42C0000B42C0000C42C0000D42C000033
:1035F800DC2C0000E42C0000EC2C0000242C000043
:10360800F02C0000F82C0000002D0000042D000014
:10361800082D0000102D0000182D0000202D00009E
:10362800242D0000282D00002C2D0000302D000036
:10363800342D0000382D00003C2D0000402D0000E6
:10364800442D0000482D00004C2D0000502D000096
:10365800542D0000582D00005C2D0000602D000046
:10366800642D0000682D0000702D0000782D0000EA
:103678007C2D0000802D0000882D000018050020FA
:103688000000000000000000000000000000000032
:103698000000000000000000000000000000000022
:1036A8000000000000000000000000000000000012
:1036B8000000000000000000000000000000000002
:1036C80000000000000000000000000000000000F2
:1036D80000000000000000000000000000000000E2
:0836E800F000002000000000CA
:00000001FF
